:020000040800F2
:10000000282600205D01000865010008670100083E
:10001000690100086B0100086D0100080000000084
:100020000000000000000000000000006F01000858
:10003000710100080000000073010008813300080E
:1000400077010008770100087701000877010008B0
:1000500077010008770100087701000877010008A0
:100060007701000877010008770100087701000890
:100070007701000877010008770100087701000880
:100080007701000877010008770100087701000870
:100090007701000877010008770100087701000860
:1000A0007701000877010008770100087701000850
:1000B0007701000877010008770100087701000840
:1000C0007701000877010008770100087701000830
:1000D0007701000877010008313500087701000832
:1000E0007701000877010008770100087701000810
:1000F0007701000877010008770100087701000800
:1001000077010008770100087701000877010008EF
:1001100077010008770100087701000877010008DF
:1001200077010008770100087701000877010008CF
:1001300077010008770100087701000877010008BF
:100140007701000877010008DFF80CD000F04AFCC6
:1001500000480047CD3D000828260020064880477B
:1001600006480047FEE7FEE7FEE7FEE7FEE7FEE79C
:10017000FEE7FEE7FEE7FEE76534000849010008F8
:10018000D2B201E000F8012B491EFBD270470022D9
:10019000F6E710B513460A4604461946FFF7F0FF86
:1001A000204610BD30B504460020034600E05B1C2D
:1001B000934203D2E05CCD5C401BF8D030BD2DE90A
:1001C000F05F93460F4680460446002603F072FF18
:1001D000D0F80090824614F8015B2DB100F054FA7B
:1001E0000068405DC007F6D12B2D02D02D2D1AD00E
:1001F000641E0021CAF800105A463946204600F015
:1002000050FA014627B13868A04201D1C7F80080F2
:10021000DAF80000022809D0CAF80090700505D568
:100220004842BDE8F09F46F48066E2E70846F8E7FA
:100230002DE9FE4F804681EA0300C00F0C46009076
:1002400021F0004123F00045B8EB0200A94105D29E
:100250004046214690461C460B46024623F000408D
:10026000104347D0270DC7F30A00C3F30A51029089
:10027000401A019040286BDAC3F3130040F4801B4E
:100280000098924620B10023D2EB030A63EB0B0BDC
:1002900001985946C0F14002504600F0D4F9064694
:1002A0000D4650465946019A00F0DCF910EB080063
:1002B0006141002487EA115284EAE7731A4340D06F
:1002C000009A62B3019A012A4FEA075215DC001B1B
:1002D00061EB02014FF0004202EA0752CDE9004211
:1002E000001C41F5801132462B4600F0E5FA03B0C0
:1002F000BDE8F08F40462146F9E7001B61EB0201A3
:10030000001C41F5801300185B412018A2F500176E
:1003100047EB030140EAD570B6196D4111E06D0855
:100320004FEA360645EAC0754FEA0752001B61EBFB
:100330000201001C41F5801149084FEA3000001904
:10034000514132462B4603B0BDE8F04F00F0A5BA4C
:100350000098012240000023D0EB020263EBE0731F
:10036000009821464FEAE074B8EB000061EB04010D
:10037000E9E783F000435BE781F0004158E72DE9AE
:10038000FE4F81EA030404F0004421F00041009490
:100390004FF0000B23F0004350EA01045ED052EA14
:1003A00003045BD0C3F30A54C1F30A552C44A4F2EE
:1003B000F3340194A0FB0254C1F3130141F4801102
:1003C000C3F3130343F4801301FB024400FB034E09
:1003D000840A970A44EA815447EA8357A4FB0768D2
:1003E00002958D0A05FB07854FEA932C04FB0C54FC
:1003F0002705029D4FEA065847EA1637B5EB080570
:100400006EEB070C870E920E47EA811742EA8312C1
:10041000A7FB0201B6EB0B0164EB00042B0D43EAD2
:100420000C335E1844EB1C50DA465146E7FB0201E0
:10043000C5F313044FEA0B3343EA14534FEA043273
:10044000019C43EA0603A4F10C040294009CCDE94C
:1004500000B400F031FA03B0BDE8F08F002001468F
:10046000F9E72DE9F04D81EA030404F0004B21F097
:10047000004514464FF0000A23F0004150EA0502FF
:1004800020D054EA01021DD0C5F30A570246C5F335
:100490001303C1F31300C1F30A5640F4801543F46B
:1004A0008013A7EB0608101BD64608F2FD3873EB45
:1004B000050002D308F1010801E092185B41B8F190
:1004C000000F03DA00200146BDE8F08D00204FF454
:1004D0008011064684460EE0171B73EB050705D313
:1004E000121B63EB050306434CEA010C49084FEA73
:1004F000300092185B4150EA0107EDD152EA030047
:1005000012D082EA040083EA0501084305D0101BDB
:10051000AB4106D20122002306E000224FF0004347
:1005200002E06FF0010253101AEB06004CEB085189
:1005300010EB0A0041EB0B01BDE8F04D00F0ADB946
:100540000EB540F2334102910021CDE900110A4677
:100550000B4600F0B1F903B000BD00F0004230F0EE
:1005600000400AD0C10D01F56071C0F3160042EAE7
:100570000151C208400711437047002001467047EF
:1005800001F0004330B421F0004150EA010206D0EE
:100590000A0DA2F56072C1F31301002A02DC30BC1F
:1005A00000207047440F44EAC104C100E01830BC89
:1005B00000EBC25000F01CB930B50B4601460020DC
:1005C0002022012409E021FA02F59D4205D303FA15
:1005D00002F5491B04FA02F52844151EA2F1010296
:1005E000F1DC30BD2DE9F05F0546002092469B46C8
:1005F00088460646814640241BE028464146474639
:10060000224600F001FA53465A46C01A914110D3CF
:1006100011461846224600F016F82D1A67EB01081D
:100620004F4622460120002100F00DF817EB00098B
:100630004E41201EA4F10104DFDC484631462A4623
:100640004346BDE8F09F202A04DB203A00FA02F17D
:10065000002070479140C2F1200320FA03F31943B0
:1006600090407047202A06DBCB17203A41FA02F06F
:1006700043EAE07306E041FA02F3D040C2F12002FF
:10068000914008431946704700487047DC52000803
:1006900010B50446FFF7F8FF0068005D00F00100A8
:1006A00010BD2DE9F05F82460078002715468B4685
:1006B0000AF10104B946302801D09DB113E014F8C5
:1006C000010B0127782803D0582801D045B10AE052
:1006D0000DB1102D07D10027102514F8010B02E0F1
:1006E000082500E00A250026B0460EE005FB0800BC
:1006F00005FB06F1012701EB10461FFA80F8B6F55D
:10070000803F00D3B94614F8010B294600F08CF95C
:100710000028EBDABBF1000F05D00FB1641E00E03A
:100720005446CBF80040B9F1000F06D003F0C2FCEC
:1007300002210160C81EBDE8F09F48EA0640FAE7C2
:100740000FB40B0010B58AB00FA900910E994FF0AD
:100750000004234ACC60214CCDE9064200D004239A
:100760006FF00042CDE901321E4A089202466B4604
:10077000002000F0FBF90AB010BC5DF814FBF0B5E6
:1007800085B007464FF0FF300091CDE901011E46CC
:10079000002015460C4604903B466A46314604A8A4
:1007A000FFF7CEFF04990346601825B109B1024650
:1007B00000E022462A6000290ED0002B02DD0099BD
:1007C000814209D00094001BCDE901043B466A46F2
:1007D000314604A8FFF7B4FF05B0F0BDA50D000831
:1007E000C30D00089106000800230360FFF7C7BF90
:1007F0000029A8BF7047401C490008BF20F0010035
:10080000704710B4B0FA80FC00FA0CF050EA010412
:1008100004BF10BC704749B1CCF1200421FA04F4A4
:1008200011FA0CF118BF012121430843A3EB0C017D
:10083000CB1D4FEA00614FEA102042BF002010BCE0
:10084000704700EBC35010440029A4BF10BC704790
:10085000401C490008BF20F0010010BC704710B5D3
:1008600041000CD0C0F3C751962908DC7E2909DC71
:1008700006DB410204D000F0004040F07E5010BD85
:10088000002010BDC1F19604C4F1200100FA01F16D
:10089000E040FFF7ADFFA04010BD10B5141E73F18E
:1008A000000408DA401C41F1000192185B411A4330
:1008B00001D120F0010010BD2DE9F04D92469B467C
:1008C00011B1B1FA81F202E0B0FA80F22032904622
:1008D000FFF7B9FE04460F4640EA0A0041EA0B0161
:1008E00053465A46084313D0114653EA010019D023
:1008F000C8F14002504600F087F805460E465046C3
:1009000059464246FFF79FFE084305D0012004E008
:1009100020463946BDE8F08D0020054346EAE076E2
:100920002C4337430A986305E40AA0EB0800002231
:10093000FD0A44EA47540A3002D500200146E9E79F
:10094000010510196941DDE9084500196941BDE853
:10095000F04DA2E7C1F30A52C1F3130140F2FF3395
:1009600041F480119A4202DA00200146704740F2B9
:1009700033439A42A2F2334202DC524200F044B8BE
:10098000FFF761BE30B5041E71F1000404DB4FF0C7
:100990000044404264EB0101141E73F1000405DBC6
:1009A0001C464FF00043524263EB04038B4208BFE6
:1009B000824230BD30B5041E71F1000404DB4FF0FB
:1009C0000044404264EB0101141E73F1000405DB96
:1009D0001C464FF00043524263EB0403994208BFA8
:1009E000904230BD064C074D06E0E06840F0010340
:1009F00094E8070098471034AC42F6D3FFF7A8FB01
:100A0000F054000810550008202A04DB203A21FA8F
:100A100002F00021704721FA02F3D040C2F1200217
:100A200091400843194670473A2800D2303820F0E8
:100A30002002412A01D3A2F13700884201D34FF0AE
:100A4000FF3070472DE9FF4F087883B09946FF28A3
:100A500005D0491C2D2804D00024002008E00020E7
:100A60000BE00124F9E700EB800003EB4000491C98
:100A70000B78FF2BF7D104B1404200230293147886
:100A800019461D462D2C01D02B2C04D1521C2D2C87
:100A900013D000240294AA461478FF2C0FD00A2504
:100AA000A3FB057801FB05814FF0000C03FB0C1143
:100AB000521CE3194AEB0101EEE70124EAE7814405
:100AC00053EA010002D019F5C87F06DA0398002125
:100AD000C0E9001107B0BDE8F08F0025AE4E2F46EB
:100AE000DFF8B882184600F07DF9CDE90001B9F1D0
:100AF000000002DAC9F1000400E004460023A74A1E
:100B00001AEB030B42EB045A12E0E00707D02A4627
:100B1000334638464146FFF732FC074688462A46A8
:100B2000334610461946FFF72AFC05460E46641068
:100B3000002CEAD1DDE90001B9F1000F5A46534615
:100B400006DAFFF78EFC3A464346FFF78AFC05E0DB
:100B5000FFF715FC3A464346FFF711FC029A0AB12B
:100B600081F00041039AC2E90001B3E72DE9FF4F8C
:100B70001F468DB0D7E901464FF0FF382E2045467D
:100B80004FF000090B90B9696D1C0E988847396ABF
:100B9000824688470028F6D1BAF1FF3F0AD024F4F4
:100BA000D064002E11DDBAF12B0F08D0BAF12D0F51
:100BB0000BD102E0404611B08DE744F48064B9697E
:100BC0006D1C0E9888478246761E6946600501D5E1
:100BD0002D2000E02B208DF8000001F1010B0DF11C
:100BE000200809E0B9696D1C0E98884782460F9865
:100BF00044F40074761E0560002E02DDBAF1300F59
:100C0000F0D00B998A453ED144F0800406E00F995C
:100C1000681CA9F1010944F400740860B9696D1CED
:100C2000761E0E98884782463028F0D02BE00B992C
:100C30008A4505D1200603D444F08004761E18E0CE
:100C4000504603F0F3FE08B30DF11302761EAAF12D
:100C5000300044F40074934506D20BF8010B2006D3
:100C600007D5A9F1010003E0200602D409F1010033
:100C70008146A00502D50F99681C0860B9696D1CF2
:100C80000E9888478246002ED1DC53E0002E51DDBD
:100C9000BAF1650F02D0BAF1450F4BD1A00549D585
:100CA000B9696D1C24F44074761E0E9888478246FC
:100CB000002E0CDD2B2804D0BAF12D0F07D144F4FF
:100CC0008074B9696D1C0E9888478246761EE005CF
:100CD00001D52D2100E02B2108F8011BCDF82C8037
:100CE00021E00DF12901761E44F4007488450CD2F0
:100CF000AAF1300010F0FF0088F8000002D10B9933
:100D0000884509D908F1010806E0E00501D5244825
:100D100001E042F20F708146B9696D1C0E98884758
:100D200082460F980560002E04DD504603F07EFEDB
:100D30000028D6D1F9690E988847FF208BF800006B
:100D400088F800000020069007904B466A4608A9E4
:100D500006A8FFF777FEA00502D46FF001002AE78E
:100D600014F0240F0AD0E00714D1DDE90612386828
:100D7000031D3B600068C0E900120BE0DDE90601DD
:100D8000FFF7FEFB0146E00704D13868021D3A6018
:100D90000068016028460EE7000014400000F03FA4
:100DA000F1D8FFFF426842B1016811F8013B23B15D
:100DB000521EC0E90012184670470121C160881E0A
:100DC000704742685AB1C368016843B983688B426F
:100DD00005D0491E521CC0E90012002070474FF098
:100DE000FF3070470EB540F2334202920022CDE947
:100DF00000221346FFF760FD03B000BD70B58C18EC
:100E000010F8015B15F0070301D110F8013B2A111E
:100E100006D110F8012B03E010F8016B01F8016B0B
:100E20005B1EF9D12B0705D40023521E0DD401F807
:100E3000013BFAE710F8013BCB1A921C03E013F8D0
:100E4000015B01F8015B521EF9D5A142D8D3002005
:100E500070BD00002DE9F0412DED108BB5EE400A7C
:100E6000F1EE10FA40F3B180F5EE400AB0EE609A70
:100E7000F1EE10FA40F3A9800C46002900F0A5809D
:100E8000B0EE408A00EE104A9FED52AAB8EE40BA8A
:100E90008AEE0BCA054600EE105AB8EE40DA8CEE28
:100EA0000D0A88EE000A03F0C9FB9FED4B1AB7EE5E
:100EB00000EA29EE011A81EE0C1ABCEEC0CA9FEDC1
:100EC000470A1CEE107A31EE0EFA2FEE000A03F0FC
:100ED000B5FB8EEE091ABCEEC09AB1EE040A19EE0B
:100EE000108A21EE000A03F0A9FB2DEE0B1A81EE09
:100EF0000A1AB0EE00AAB4EE4A0AF1EE10FAC8BF20
:100F0000B0EE40AAB0EE410A03F062FB40F2D81006
:100F1000C2F20000B5F5437100F28C6298BF294619
:100F200082ED008A00F5CF6282ED00CABCEECA1ADB
:100F300000F2746282ED001ABCEEC00A00F27C621C
:100F400082ED000A00F2846290F8473682ED00FAE2
:100F500000F5D16282ED009AC1F3034203F0F00381
:100F600090F84A661A4480F847260A0A80F848260C
:100F700080F84916C7F3024106F0F802114480F8E0
:100F80004A16390AC0F8705690F8455680F84B1644
:100F9000782101EBC40190F830C601F0780105F02A
:100FA0008702114480F84516C8F303410CF0F002A3
:100FB000114480F830164FEA182180F8804680F8F6
:100FC0004C7680F8311680F83286BDEC108BBDE887
:100FD000F08100BF0024F445DB0FC9C00000804948
:100FE0002DE9F04182B00D46044608260127002075
:100FF00040F2052108220023CDE900764FF00008D9
:1010000002F0F8FD00204FF4027100220023009747
:10101000019602F0EFFD1826002040F2052108227B
:1010200000230097019602F0E5FD00204FF40271C5
:10103000802200230097019602F0DCFD00204FF48F
:1010400002712A460123CDF80080CDF8048001F01A
:1010500075FA287900F03F00207002B0BDE8F081F9
:1010600010B582B08C46082905D0BCF1180F03D00A
:10107000BCF1FF0F14D10020012100914FF4017148
:1010800004220023CDF804C002F0B4FD044643F668
:10109000982000F0CDF843F6982000F0C9F800E061
:1010A000FF2460B202B010BDF0B583B01446082A28
:1010B00003D0182C03D0FF2C1ED1002500E00546DC
:1010C00091F82200042262F3C50081F8220000F0AA
:1010D000E7020127284628210023CDE900740026D5
:1010E00002F088FD284640F2C22108220023009722
:1010F000019402F07FFD00E0FF2670B203B0F0BD66
:1011000010B582B08C46082905D0BCF1180F03D069
:10111000BCF1FF0F14D10020012100914FF40171A7
:1011200002220023CDF804C002F064FD044643F619
:10113000982000F07DF843F6982000F079F800E060
:10114000FF2460B202B010BD0022C27280F85A269D
:10115000C270C28102748274C0F81920C0F81D20C8
:10116000A0F82120FF2088724FF0FF3048607047C0
:1011700080B501294FF6FF7210DB45F2E02C0138F3
:10118000C0F6000C10F8013F1FFA82FED2B25A409E
:101190003CF81220013982EA1E22F3D190B280BDC0
:1011A00047F21000EFF3108172B6C4F200006FF442
:1011B000CB6100BF026821B112F0020201F101010E
:1011C000F8D041F62001C4F200010A6822F0007252
:1011D0000A600A6842F000720A6050F8101C02228D
:1011E00062F34A2140F8101C6FF4CB61026821B110
:1011F00012F0020201F10101F8D16FF4CB6100BFDE
:10120000026821B112F0020201F10101F8D062B6C8
:101210007047000010B5002808BF10BD044600BF8D
:101220004FF47A70013C00F003F8002CF8D110BDA7
:1012300080B54EF2180C40F20C02CEF2000CC2F255
:1012400000025CF8041C12684DF68363C4F21B3381
:10125000A2FB03239A0C5043DCF80030002808BF9F
:1012600080BD01F1010E002102E000BF81420AD2DF
:10127000DCF800209342F9D01944891A93421346AE
:1012800098BF7144F2E780BDF0B583B006460D46C5
:101290000020182A18BF064691F82016A52085F8C8
:1012A0001F0641F00600144685F820060127304647
:1012B0004FF44061A52200230097019402F09AFCAC
:1012C00095F82026304640F601410023009701940E
:1012D00002F090FCC0B203B0F0BD0000B0B582B027
:1012E0000D4600219C46102B18BF084600914FF474
:1012F000206101231446CDF804C001F01FF92179C3
:1013000001F00E000838B0FA80F0400985F81D168B
:1013100002B0B0BD2DE9F04F83B0054691F82B0621
:10132000144640F001000E464FF00008182A18BF7E
:10133000454681F82B06C2B24FF0010B284640F219
:1013400073510023CDF800B0019402F053FC307BC0
:1013500040F2452140F001003073C2B2284600231C
:10136000CDF800B0019402F045FC4C2086F821062F
:1013700028464FF4B0614C220023CDF800B0019410
:1013800002F038FC284640F285510022002386F8FE
:101390002286CDF800B0019402F02CFC96F82306CA
:1013A000082161F3030086F8230600F0F80002022A
:1013B0004FF0020A284640F28A51002386F824861C
:1013C000CDF800A0019402F015FC96F825064FF028
:1013D000030969F3030086F8250600F0F300802175
:1013E000000286F8261600F18002284640F28C5151
:1013F0000023CDF800A0019402F0FCFB96F827062C
:1014000040F28E516BF3420086F8270600F0FB0293
:1014100028460023CDF800B0019402F0EBFBA02792
:1014200028464FF4A8614FF420420023A6F82C76FA
:10143000CDF800A0019402F0DDFB284640F24251B5
:101440004FF420420023A6F82E76CDF800A0019498
:1014500002F0D0FB96F8311696F8300696F8322650
:10146000090241EA00400244284640F24451002368
:10147000CDF80090019402F0BDFB96F8330640F2DF
:10148000475100F0E00086F83306020428460023A6
:10149000A6F83486CDF80090019402F0ABFB96F8E4
:1014A000360640F24A5100F0E00086F836060204A3
:1014B00028460023A6F83786CDF80090019402F064
:1014C00099FB96F8390640F24D5100F0F80086F885
:1014D0003906020428460023A6F83A86CDF8009083
:1014E000019402F087FB96F83C064FF4AA6100F0E5
:1014F000E00086F83C06020428460023A6F83D8654
:10150000CDF80090019402F075FB96F83F0640F28A
:10151000535100F0E00086F83F06020428460023FD
:10152000A6F84086CDF80090019402F063FB96F88F
:10153000420640F2565100F0F00086F842060204DE
:1015400028460023A6F84386CDF80090019402F0C7
:1015500051FB96F8450640F259516BF3420086F86C
:10156000450600F0FB0228460023CDF800B00194A8
:1015700002F040FB96F84526284640F259510023D8
:10158000CDF800B0019402F035FB96F845262846C8
:1015900040F259510023CDF800B0019402F02AFB2B
:1015A00096F82B06042161F3020086F82B0600F062
:1015B000FC02284640F273510023CDF800B001949C
:1015C00002F018FB96F82B26284640F273510023B0
:1015D000CDF800B0019402F00DFB96F8481696F88D
:1015E000470696F84926090241EA00400244284687
:1015F00040F211510023CDF80090019402F0FAFA64
:1016000096F82B0640F273516AF3420086F82B06D7
:1016100000F0FD0228460023CDF800B0019402F04E
:10162000E9FA96F846064FF4A26100F0F002284667
:10163000002386F84626CDF800B0019402F0DAFACD
:1016400096F8462628464FF4A2610023CDF800B054
:10165000019402F0CFFA28464FF4AE610022002335
:10166000A6F8288686F82A86CDF80090019402F024
:10167000C1FA96F84B1696F84A0696F84C260902D7
:1016800041EA00400244284640F214510023CDF8BC
:101690000090019402F0AEFA002003B0BDE8F08F94
:1016A0002DE9F04182B005460020182A18BF0546F2
:1016B00091F827064FF0050868F30200144681F8F8
:1016C000270600F0FD0218200E460127019028464B
:1016D00040F28E510023009702F08CFA707B4FF499
:1016E000117140F002007073C2B2284600230097C7
:1016F000019402F07FFA307B40F2452168F302004A
:10170000307300F0FD02284600230097019402F098
:1017100071FA96F8450640F2595140F0010086F8FA
:101720004506C2B2284600230097019402F062FAEF
:1017300096F84506032161F3020086F8450600F09D
:10174000FB02284640F2595100230097019402F011
:1017500051FA002002B0BDE8F0810000F0B581B080
:101760002DED108B9FED729AB0EE408A89EE000A43
:10177000B1EE04AA9FED6FFAB2EE041AB4EE418AFC
:10178000B0EE48CA0C46F1EE10FAC8BFB0EE41CA3E
:1017900060EE0A8A88EE8F0A02F01AFFBDEEC00AD8
:1017A00010EE105A0A2D28BF0A2500EE105AB8EE86
:1017B00040BA89EE0BEA9FED600AB7EE00DA2CEE34
:1017C000000AF4EE4F8AF1EE10FA80EE0E0A30EEC7
:1017D0000D9A0ADD8EEE080A20EE0A0A02F02EFFAC
:1017E000BCEEC00A10EE106A01E047F6122600EEC9
:1017F000106AB8EE40FA8DEE0C0A8EEE0FEA40F257
:10180000C010C2F2000020EE0A0A80ED00EA02F0E9
:1018100015FFB0EE00AA9FED491AB4EE4A0AF1EEA8
:1018200010FAC8BFB0EE40AA2FEE010A20EE0B0A54
:1018300002F0CEFE88EE0E1AB0EE408AB0EE410AFB
:1018400002F0FCFE40F2D010BCEEC00AC2F2000072
:1018500080ED000A04F5CF60B8EE401A80ED000A72
:1018600040F2C81010EE107A2EEE010AC2F200000B
:1018700080ED000A04F27460BCEECA0A80ED000A32
:1018800004F27C60BCEEC80A80ED000A9FED2C0AD1
:10189000C4F8706629EE000A02F0D0FE04F28461FA
:1018A00081ED009AA6F5437194F84766C1F30342AF
:1018B00006F0F00694F84A36324484F847260A0ABD
:1018C00084F8482684F84916C7F3024103F0F80269
:1018D000114484F84A16390A94F845C684F84B1620
:1018E000782101EBC50101F078010CF08702114469
:1018F000BCEEC00A04F5D16084F8451694F83016A1
:1019000080ED000A10EE100AC0F3034201F0F0016E
:10191000114484F83016010A84F8805684F84C7615
:1019200084F8311684F83206BDEC108B01B0F0BD9E
:101930000024F44500E8FD46DB0FC9C0BD37063979
:10194000000080492DE9F04182B01E4617460C4642
:1019500033B1102E08D0FF2E49D14FF0FF0801E01F
:101960004FF00808002502E005464FF01808002057
:101970000090284640F286713A460323019600F013
:10198000DDFDB9790646481E84F84F1684F84D06E9
:10199000C2B20127284640F2362100230097CDF835
:1019A000048002F027F994F84E0640F2372167F3DD
:1019B000020084F84E0600F0F90228460023009742
:1019C000CDF8048002F016F994F84E06052161F373
:1019D000020084F84E0600F0FD02284640F237214E
:1019E00000230097CDF8048002F004F900E0FF2600
:1019F00070B202B0BDE8F081F0B583B005460020BA
:101A0000182A18BF054691F84506012767F302001A
:101A100014460E4681F8450600F0F902284640F2C9
:101A2000595100230097019402F0E4F8707B4FF4C1
:101A3000117100F0FD022846002372730097019493
:101A400002F0D8F8307B40F2452167F30200307392
:101A500000F0F902284600230097019402F0CAF82A
:101A600096F8270640F28E5167F3020086F82706A3
:101A700000F0F902284600230097019402F0BAF81A
:101A8000002003B0F0BD00002DE9F04F81B02DED36
:101A9000028B84B09FED400B019000F58B645BECF2
:101AA000100B9FED3F0B4FF0000856EC105BCDE99B
:101AB00002120090019894ED002A00EB080999EDBC
:101AC000E00A99EDFA1A94ED013A20EE024A21EE6D
:101AD000035A34EE054A22EE025A23EE036A22EE3E
:101AE000011A20EE030A35EE065A31EE400A84EE62
:101AF000054A80EE052A09F58C6A09F5996724EEF6
:101B0000040A22EE021A30EE011AB1EEC10A8AED81
:101B1000004A87ED002AB4EE400AF1EE10FA30D602
:101B200009F5A66080ED000A3868FEF716FD41EC65
:101B3000180BDAF80000FEF710FD41EC110BB0EEC7
:101B4000480AF0EE680A02F027FC009A51EC100BEC
:101B50005B46FEF714FC2A463346FEF782FCFEF78E
:101B60000FFD0299C9F8980541F80800D9F8300529
:101B7000039941F8080008F10408B8F1340F99D12D
:101B800004E0B0EE410A02F0A6FDC9E704B0BDECE6
:101B9000028B01B0BDE8F08F0000000000806640BD
:101BA00000000040FB21094010B540F60004C4F2DB
:101BB000010420464FF40071012200F017F920467D
:101BC0004FF40071002200F03FF910BD80B50246CD
:101BD000002840F60000C4F201004FF4007118BF65
:101BE000012200F031F980BD2DE9F04F83B00C885F
:101BF000002C00F0C88000F12402019200F11802CC
:101C0000B1F800B0009200F12802002601274FF041
:101C1000000E02920BE000BF3BFA07F20EF1040E39
:101C200007F1010706F102065C4600F0AC80A7F15F
:101C30000108012202FA08FC14EA0C0FECD0D1F8DA
:101C40000890B9F1120F1FD8012202FA09F40D22EF
:101C5000C0F20402144217D05FEA0874019C0EF02F
:101C60001C024FF00F0358BF00F12004D4F800A06D
:101C700003FA02F55B46D1F80CB02AEA05050BFA27
:101C800002F29B462A4322600268032309F00F04F4
:101C900003FA06F5AA43B44022430260C2680C79F5
:101CA000AA4304F00303B3401A43B9F1030FC2601F
:101CB00018BF19F0030208D0C26A8B78ED4303F015
:101CC00003032A40B3401A43C2628268CB7822EAF7
:101CD0000C0203F0010303FA08F31A438260029D29
:101CE000022C02D0012C04D1009D2A6842EA0C0289
:101CF0002A60B9F1120F6FEA0C0A0FD8012202FA1A
:101D000009F212F0061F1FBF426802EA0A02C9F375
:101D1000001303FA08F31CBF1A4342605FEAC902CA
:101D20007FF57AAF40F20048C4F20108D8F80020ED
:101D30005FEAC93442EA0C0358BF02EA0A03C8F852
:101D40000030D8F804205FEA893442EA0C0358BF17
:101D500002EA0A03C8F80430D8F808205FEAC92468
:101D600042EA0C0358BF02EA0A03C8F80830D8F860
:101D70000C205FEA892542EA0C0358BF02EA0A03F5
:101D8000C8F80C3048E703B0BDE8F08F4FF6FF719C
:101D9000016000210F22C0E90212017170470000AA
:101DA000B0B501F071FE40F66C0440F2D410C2F2FE
:101DB0000004C2F200002146FFF712F940F2D815E4
:101DC000C2F20005002029460822FFF75DFA2846E6
:101DD000214600F0ADFA0020294600F0CDF80020A1
:101DE00029460822FFF760F9B0BD0000F0B585B0C4
:101DF0000446A0F18040A0F584304FEAB02015469B
:101E000003280E4605D80CA151F82000012100F04E
:101E1000DBFA01AF3846FFF7B9FF1020ADF8060036
:101E200000208DF8080020463946ADF8046003957F
:101E3000FFF7DAFE05B0F0BD040000000800000066
:101E400010000000200000001823002A08BF2823EB
:101E5000C1507047B0B58AB0044606A8FFF796FF98
:101E600043F60040C4F2010084421BD043F200005C
:101E7000C4F20100844238D141F20500012100F092
:101E8000A3FAA020ADF81800022040F60005089043
:101E90000020C4F20105099006A92846FFF7A4FE18
:101EA000402019E00920C0F20800012100F08CFA5E
:101EB0004FF42040ADF8180002200890002009904F
:101EC00040F60000C4F2010000F5806506A928462E
:101ED000FFF78AFE4FF48040ADF818000020CDE9EE
:101EE000080006A92846FFF77FFE4FF08270019098
:101EF000002002904FF000700390202004900720F3
:101F0000ADF8140001A9204600F0D2FE20460121C0
:101F100000F0BAFE0AB0B0BD10B5C17800294EF28B
:101F20000011CEF200011AD04EF60C52CEF2000291
:101F30001268072323EA12220F23C2F1040C23FAAA
:101F400002F24378847890F800E003FA0CF3224020
:101F50001A43120101EB0E0383F8002300E08031E5
:101F60000078012300F01F0203FA02F2C0F34210CE
:101F700041F8202010BD00002DE9F04F83B00C4641
:101F800008254FF0030900204FF42471002200239C
:101F9000CDE90095002601F02DFE18274FF0020B29
:101FA0000020082100220023CDF800B0019701F0A5
:101FB00021FE94F858064FF0010868F3830084F876
:101FC000580600F0F702002007210023CDE9008722
:101FD000182701F00FFE94F8590694F85A160C22AF
:101FE00040F0010062F3040184F8590684F85A169F
:101FF000000401F0EC01802240EA012084F85B2615
:1020000000F18002002002210023CDF8009001970A
:1020100001F0F0FD207F617F40F040002077C0B2EA
:1020200041EA00224FF0050900201F210023A4F8F7
:102030001960E676CDF80090019701F0DBFDA07FF6
:1020400094F8211069F3C50068F3C501A07700F08A
:10205000EF0301F0CF0084F82110020200202421B8
:10206000A4F81F6084F82260CDF80090019701F079
:10207000C1FD94F85C06192161F3040084F85C0644
:1020800000F0F90200203E210023CDF800800195E8
:1020900001F0B0FD237BE17A627B69F30203A07A51
:1020A000237303F0FD0342F0020268F304011B04F2
:1020B0006273E17240F0010043EA026201F0E10163
:1020C000A07242EA0121C0B20A18002040F2432166
:1020D000002384F85D66CDF80090019501F08AFD3B
:1020E00094F8170640F2052140F0010084F8170625
:1020F000C2B200200023CDF80080019501F07AFDE6
:1021000094F85F0694F8611600F0C00001F0C00179
:1021100084F85F0684F8611641EA00424FF0040A31
:1021200000201021002384F85E6684F86066CDF8F4
:1021300000A0019501F05EFD002014210022002383
:10214000A4F86266CDF800B0019501F053FD0020BF
:102150004FF4A06100220023CDF800A0019501F00A
:1021600049FD94F846064FF4A26140F0080084F857
:102170004606030600200022C4F84766A4F84B6612
:102180000095019501F036FDA02084F82C0684F816
:102190002E0600204FF4A86100224FF0A0230095E6
:1021A000019501F027FD00204FF4A96100220023D2
:1021B0000095019501F01EFD00204FF4AA61002258
:1021C00000230095019501F015FD94F845064FF4A4
:1021D000AB6168F3420084F8450600F0FB02002082
:1021E000002384F84466CDF800B0019501F002FDAB
:1021F00094F82B064FF4AE616BF3420084F82B0683
:1022000000F0FD0200200023A4F8286684F82A6666
:10221000CDF800A0019501F0EDFC00204FF4B06175
:10222000002200230095019501F0E4FC94F82706B4
:102230004FF4B1616BF3420084F8270600F0FD0211
:102240000720009000200023019501F0D3FC94F8B2
:102250001E064FF4B46100F0F0020020002384F861
:102260001E26CDF80080019501F0C4FC40F27510E7
:10227000A4F864060020162147F201520023CDF88D
:1022800000B0019501F0B6FC94F8660640F27A21A0
:1022900040F0790084F86606C2B200200023CDF831
:1022A0000080019501F0A6FC94F8520640F22A2124
:1022B0006BF3020084F8520600F0FA0200200023BB
:1022C000CDF80080019701F095FC43F20210A4F8CC
:1022D000670600203C2140F231220023CDF800B0F7
:1022E000019501F087FC94F854064FF40C7169F3E2
:1022F000020084F85406020600200023CDF800A056
:10230000019701F077FC94F85C06172161F3040053
:1023100084F85C0600F0F70200203E210023CDF88F
:102320000080019501F066FC002003B0BDE8F08F4D
:1023300070B582B090F85B260C4662F07F0180F8A1
:102340005B16CAB21825012600200421002300963E
:10235000019501F04FFC00204FF40171042200238D
:102360000096019501F046FC4FF47A70FEF760FF8D
:102370001E2500BF42F21070FEF75AFF013DF9D151
:1023800000F06AFD10250026002040F2357122463B
:1023900001230096019500F0D1F8002040F245712C
:1023A000224601230096019500F0C8F802B070BDE6
:1023B000002941F21C01C4F202010A680CBF22EAA2
:1023C0000000104308607047002941F21801C4F270
:1023D00002010A680CBF22EA00001043086070473F
:1023E000B0B541F20401C4F202010B6840F20F25BE
:1023F00005EA93451B010C686FF4F77342F2004243
:1024000041F2002CD1F820E058BF0223C0F2F402C0
:10241000C0F27A0CE4032B4405D4CC6BE407644689
:1024200008BF144607E00C68A40340F60014C0F28D
:102430003D0458BF6446CD6B6343C5F340040D684B
:10244000E340C5F38104CEF3021EDFE804F0020985
:10245000060819A252F82E2002E0624600E01A4651
:1024600002600D6845F2E044C5F30315C0F60004B0
:10247000655DEA4042600D68C5F30225655D22FA9C
:1024800005F585600D68C5F3C225655D11A422FAC6
:1024900005F5C5608D6A05F00F05655DB2FBF5F2C7
:1024A0004261896A0FA2C1F3031132F81110B3FB24
:1024B000F1F10161B0BD00BFA0860100400D030035
:1024C000801A060000350C0040420F0080841E0078
:1024D00000093D0001020406080A0C1020202020FB
:1024E00020202020010002000400060008000A004D
:1024F0000C001000200040008000000100010001DD
:102500000001000180B582B0013A9C4653B240F20E
:10251000BC1EC2F2000E002B8EF800200AD440F23E
:10252000BC12C2F200020123CDF800C001F0DCFAB7
:1025300002B080BD002002B080BD000070B51D4615
:10254000059B40F2B8161446C2F200060022326023
:102550003BB1FF2B0FD0102B1DD12A46FFF7D2FF26
:1025600003E02A46FFF7CEFF3060063520462946B5
:10257000FDF70DFE04E02A46FFF7C4FF306000259A
:1025800043F60040C4F201002946224641F2883356
:1025900000F02CFB02461046326070BD00000000C7
:1025A0002DE9F04F83B01C4691468B46102B03D18A
:1025B00080464FF0180A0CE0FF2C07D0002C40F0AA
:1025C000F7804FF000084FF0080A02E04FF00008D3
:1025D000A2469BF81E064FF4B46100F0F002012001
:1025E0008BF81E26CDE9000A00200023002501F00B
:1025F00001FB40464FF421614A46032300950194B4
:10260000FFF79CFF102C01D1404602E0002C4FD177
:10261000002099F8041040F2946210FB02B787F88A
:10262000501499F805000B0487F8510499F8062016
:1026300003F17F4387F852240E0658BF0B0443EA88
:102640000020104400EE100AB8EEC00AC7F81803C4
:1026500010EE100AFDF781FF9FED570B53EC102B86
:10266000FDF78DFE9FED560B53EC102BFDF787FE0B
:102670009FED550B53EC102BFDF781FE9FED540B96
:1026800053EC102BFDF77BFE0646DBF870060D467B
:10269000FDF756FF02460B4630462946FDF7E1FEA0
:1026A00002460B46FDF7C4FDFDF76AFFC7F8580464
:1026B0009BF81E06082161F303008BF81E0600F04C
:1026C000F8020120CDE9000A00204FF4B461002394
:1026D000002501F08FFA40464FF421614A4603235A
:1026E00000950194FFF72AFF102C01D1404602E02B
:1026F000002C4FD1002099F8041040F2946210FB96
:1027000002B787F8531499F805000B0487F85404AE
:1027100099F8062003F17F4387F855240E0658BF29
:102720000B0443EA0020104400EE100AB8EEC00A81
:10273000C7F8180310EE100AFDF70FFF9FED1E0BF0
:1027400053EC102BFDF71BFE9FED1D0B53EC102BD4
:10275000FDF715FE9FED1C0B53EC102BFDF70FFE44
:102760009FED1B0B53EC102BFDF709FE0546DBF824
:1027700070060E46FDF7E4FE02460B46284631463B
:10278000FDF76FFE02460B46FDF752FDFDF7F8FE22
:10279000C7F85C0400200090404640F286714A462B
:1027A00003230194FFF7CAFE40B203B0BDE8F08FE7
:1027B000FF20F9E700BF00BF000000000000B440A8
:1027C000000000000000803E45785290FC790540F2
:1027D000000000A09999C9BF2DE9F04F81B02DEDFF
:1027E000068B8AB01F4690460D46102B02D1064636
:1027F000182109E0FF2F05D0002F40F0DF810026CF
:10280000082101E00026394695F81E06029100F0E5
:10281000F002012085F81E26CDE9000130464FF474
:10282000B4610023002401F0E5F9304640F613219D
:1028300042462723009444460197FFF77FFE102F5E
:102840000795CDE90367CDF8248062D140F294600A
:102850009FEDDF0B16FB00589FEDE38A9FEDDE9B9B
:102860009FEDDFABA8F104064FF0000B57EC10AB67
:1028700005F5CE69099808EB0B025844017982F8F6
:102880007C1243790D0682F87D32807982F87E02CF
:102890004FEA014202F17F4258BF0A0442EA032193
:1028A000084400EE100AB8EEC00A20EE080AC6F886
:1028B0001C0310EE100AFDF750FE52463B46FDF792
:1028C0005EFD53EC192BFDF75AFD53EC1A2BFDF767
:1028D00056FD99ED000A0546B8EE400A10EE100AC2
:1028E0000C46FDF73AFE02460B4628462146FDF708
:1028F000B8FD02460B46FDF79BFCFDF741FE0BF1D0
:10290000030BC6F88403BBF1270F06F10406B1D10F
:1029100064E0002F62D19FEDAE0B079852EC101BC4
:102920009FEDAD0B089151EC10BB9FEDAD0B9FEDF2
:10293000AE8A061F00275AEC104B00F5CE690692AE
:10294000059100BF0998079A384401793A4482F802
:102950007C1243790D0682F87D32807982F87E02FE
:102960004FEA014202F17F4258BF0A0442EA0321C2
:10297000084400EE100AB8EEC00A20EE080AC6F8B5
:102980001C0310EE100AFDF7E8FD089A069BFDF700
:10299000F6FC059B5A46FDF7F2FC22465346FDF72E
:1029A000EEFC99ED000A0546B8EE400A10EE100A5A
:1029B0008846FDF7D2FD02460B4628464146FDF704
:1029C00050FD02460B46FDF733FCFDF7D9FD0337FA
:1029D000C6F88403272F06F10406B3D1DDF81CB036
:1029E00008219BF81E06039D61F303008BF81E0669
:1029F00000F0F8020120009002984FF4B4610190B9
:102A000028460023002401F0F5F8DDF82480009426
:102A1000049C284640F61321424627230194FFF7E1
:102A20008DFD102C62D1029040F294609FED680BF6
:102A300015FB00B09FED6C8A9FED679B9FED68AB27
:102A4000061F59EC10AB0027089000BF08EB0700E9
:102A5000089A01793A4482F8CA1243790D0682F83D
:102A6000CB32807982F8CC024FEA014202F17F42F8
:102A700058BF0A0442EA0321084400EE100AB8EEE7
:102A8000C00A20EE080AC6F81C0310EE100AFDF773
:102A900064FD52464B46FDF772FC53EC192BFDF7D3
:102AA0006EFC53EC1A2BFDF76AFC04460BF5CE6066
:102AB00090ED000A0D46B8EE400A10EE100AFDF740
:102AC0004CFD02460B4620462946FDF7CAFC02464D
:102AD0000B46FDF7ADFBFDF753FD0337C6F8EC03DE
:102AE000272F06F10406B1D1029868E0002C66D1C8
:102AF0009FED370B029051EC100B9FED370B0691B9
:102B0000089051EC100B9FED360B9FED378AABF11F
:102B10000405002758EC106B0BF5CE69CDE90410C5
:102B200009980BEB07023844017982F8CA124379FD
:102B30000C0682F8CB32807982F8CC024FEA01424F
:102B400002F17F4258BF0A0442EA0321084400EE22
:102B5000100AB8EEC00A20EE080AC5F81C0310EEF1
:102B6000100AFDF7FAFC089A069BFDF708FCDDE960
:102B70000432FDF704FC32464346FDF700FC99EDB4
:102B8000000A0446B8EE400A10EE100A8A46FDF725
:102B9000E4FC02460B4620465146FDF762FC024625
:102BA0000B46FDF745FBFDF7EBFC0337C5F8EC03DF
:102BB000272F05F10405B3D1029800E0FF2040B2B1
:102BC0000AB0BDEC068B01B0BDE8F08F00BF00BFBE
:102BD000000000000000803ED373ED7603370A400A
:102BE000000000A09999C93F000080452DE9F04FF1
:102BF00081B040F60048C4F20108174689460446F1
:102C000040464FF4805100229B460025FFF71CF9F7
:102C10000A20FEF70DFBB9F1000F06D02046FF2178
:102C20005A4600F07DF898B100250A20FEF700FB17
:102C300040464FF480510122FFF706F90A20FEF7C3
:102C4000F7FA4D4518BF0025284601B0BDE8F08FC2
:102C500000260DF1020A0025204651465A4600F092
:102C60004BF80028E1D101369DF80200F5B24D4540
:102C70003870DAD22046FF215A46013700F050F86A
:102C80000028E9D0D1E700000288002918BF0121FF
:102C900022F0400242EA8111018070470089084019
:102CA00018BF0120704700008089704781817047FC
:102CB0002DE9F04102880B8802F4415C4A88B1F8A2
:102CC00004E043EA0C03CC881A430D8942EA0E0261
:102CD0004E8922438F892A43B1F80E8032433A430A
:102CE00042EA08020280828B22F400628283098A0F
:102CF0000182BDE8F081000070B50C460546561C07
:102D000028460121FFF7CAFF20B9013EF8D14FF054
:102D1000FF3070BD2846FFF7C7FF2080002070BD40
:102D200070B50C460546561C28460221FFF7B6FF33
:102D300020B9013EF8D14FF0FF3070BD2846214642
:102D4000FFF7B4FF002070BD10B541F20404C4F2D7
:102D5000020454F8040C40F4803044F8040C41F6AA
:102D6000FF7000BF54F8042C411E814203D212F4BC
:102D700000300846F6D054F8040C800309D440F221
:102D80000C0040F60011C2F20000C0F23D010160EB
:102D900010BDFEF705FA42F20000C4F2020001681D
:102DA00021F003010160016841F001010160206828
:102DB0004FF6FF7120602068CFF2C07140F40050E0
:102DC0002060206840F4A0602060206808402060F7
:102DD000E06B20F00300E0632068E16B40F46C10CE
:102DE0002060E16354F8040C40F0807044F8040C57
:102DF00054F8040C8001FBD5206820F0030020600B
:102E0000206840F003002060206800F00C000C28CF
:102E1000FAD110BD10B540F60044C4F201042046BA
:102E20004FF400510022FFF70FF820464FF4004105
:102E30000022FFF709F820464FF480510022FFF7E7
:102E400003F84FF47A70FEF7F3F920464FF48051FF
:102E50000122FEF7F9FF10BD80B582B000F0E0FD61
:102E6000FFF7D8FF43F60040C4F20100FEF7F2FF7F
:102E700042F6E060FEF7DCF942F6E060FEF7D8F9D2
:102E800042F6E060FEF7D4F942F6E060FEF7D0F9D2
:102E900042F6E060FEF7CCF942F6E060FEF7C8F9D2
:102EA00001204FF0080C009000204FF40171102217
:102EB0000023CDF804C000F09DFE42F6E060FEF76E
:102EC000B7F942F6E060FEF7B3F942F6E060FEF7CC
:102ED000AFF942F6E060FEF7ABF942F6E060FEF7CC
:102EE000A7F942F6E060FEF7A3F902B080BD00004A
:102EF0002DE9F04F81B02DED068B8CB040F2D8114A
:102F000040F66C02C2F20001C2F20002002010235F
:102F1000FEF7E4F9002800F0D48040F2D81940F61A
:102F20006C05C2F20009C2F20005002049462A469B
:102F30001023FFF751FC002049462A461023FFF7D3
:102F40002FFB40F6A01840F66C1AC2F20008C2F23D
:102F5000000A484641465246FEF796FD40F25C1094
:102F6000C2F200000078002800F0AD8040F2C515E4
:102F700041F2FC3E40F6E86341F6101C40F6D412E4
:102F80000020C2F200053427C2F2000EC2F2000394
:102F9000C2F2000CC2F2000258F800402E7816FB74
:102FA00007064EF806405AF800602C7814FB070418
:102FB0001E512E7809EB0004D4F8601416FB0706A6
:102FC0004CF80610D4F8C844297811FB07010430E6
:102FD00034285450E0D1AEF104041F1FA2F10408BC
:102FE000ACF104094FF0000A342600BF287840F203
:102FF0009001C2F2000151F82000FDF7AEFA0B90EB
:1030000040F2C410C2F20000027828780A9110FB46
:103010000690406802F1010BFDF79FFA2A7841EC17
:10302000180B12FB06804068FDF797FA2A7841ECEE
:10303000190B12FB06704068FDF78FFA2A7841ECF5
:103040001A0B12FB06404068FDF787FA41EC100BA3
:1030500002A8DDE90A3280EC068B56A08DED080B44
:10306000CDF800B0CDF804A000F0FCFF0AF1010A91
:103070000434043708F10408BAF10D0F09F104090A
:10308000B4D100F08FFE40F2C411C2F20001087802
:1030900001300870087800285DD040F2C410002488
:1030A000C2F20000047028780130287028781828AF
:1030B00059D841F62460C2F20000012101700020BD
:1030C0006DE003206BE040F2601B09F25C47AAF15F
:1030D0000404A8F104050026C2F2000B0FF20C183C
:1030E000DBF80000FDF739FA814657F8040F8A46ED
:1030F000FDF733FA41EC180BB86EFDF72EFA41ECF0
:10310000190B54F8040FFDF728FA41EC1A0B55F887
:10311000040FFDF722FA41EC100B02A880EC068B9D
:1031200040464A4653468DED080B009600F09AFF44
:1031300001360D2ED4D100F035FE40F2D811C2F286
:10314000000100200822FEF757FC25A002F022F81B
:1031500000F028FE1FE041F62460C2F200000121C9
:10316000017000201BE040F2D811C2F200010020E3
:103170000822FEF741FC1AA002F00CF800F012FE43
:1031800040F25C10C2F20000047040F2C410C2F2BF
:1031900000002C7004700020FEF718FD042040F29F
:1031A000CC11C2F2000108700CB0BDEC068B01B06E
:1031B000BDE8F08F4549535F444154412C252E36DC
:1031C000662C25752C25752C252E36662C252E363D
:1031D000662C252E36662C252E36660D0A0000003C
:1031E0004549535F444F4E450D0000004549535F2C
:1031F000444154412C252E36662C312C25752C2526
:103200002E36662C252E36662C252E36662C252E3F
:1032100036660D0A0000000070B52DED028B40F2FD
:103220005C14C2F20004207810B10120FEF7CEFC3D
:10323000207840F2D811C2F2000118B340F2C51054
:10324000C2F20000027840F29003C2F2000353F889
:10325000222040F21003C1F88C260278C2F200034B
:1032600053F82240027840F2F403C2F2000303EB69
:10327000820292ED008A007840F27402C2F20002EB
:10328000155C21E040F26010C2F200000068C1F855
:103290008C0640F60B10C2F20000007880B140F6B8
:1032A0000C10C2F20000046840F61410C2F20000D4
:1032B00090ED008A40F61010C2F20000057803E09D
:1032C0009FED1B8A0024002501F28C6696ED000A12
:1032D0000020FEF743FA6CB1B5EE408AF1EE10FA29
:1032E00008DD3DB196ED000A2046F0EE480A294679
:1032F000FDF7B0FD40F2D814C2F2000400202146D0
:103300000822FEF707F8002021460822FEF7C8F938
:1033100040F2CC10C2F200000121017040F208001E
:10332000C2F20000017801310170BDEC028B70BD6A
:103330000000000080B540F2D81140F66C02C2F2E5
:103340000001C2F2000200200023FEF7FBFA40F267
:10335000CC10C2F200000221017080BDB0B501386E
:103360000024B4EB106F18BFB0BD4EF21005CEF2C2
:103370000005686000F0A0FC0720AC602860B0BDCC
:1033800010B540F61C11C2F20001086841F2883302
:103390000A30086040F61810C2F2000002680A32D3
:1033A00002600A689A4204BF00220A6002684FF273
:1033B0001803C0F201039A4204BF002202600A68A7
:1033C0004CF6CD43CCF6CC435A4349F699134FEA19
:1033D0007202C1F699139A4205D840F62212C2F23F
:1033E00000020123137040F2D81C0968C2F2000CDD
:1033F0000168DCF874264FF47A735A4340F2CC1417
:103400009142C2F200040BD32278012A08D140F67F
:10341000231EC2F2000E01228EF80020002202605C
:103420000268DCF87C1659438A420AD321780229C3
:1034300007D140F62411C2F2000101220A700021D6
:1034400001600168B1F5FA7F0BD32178032918BF19
:1034500010BD40F62411C2F2000101220A700021C1
:10346000016010BD10B54EF68854CEF200042068FD
:103470004CF2000240F47000206041F20000C4F2FF
:103480000200416ACFF6FF0241F004014162416847
:103490001140416001684FF6FF72CFF6F6621140AD
:1034A000016001684FF6FF7221F4802101604168DC
:1034B000C0F20072114041604FF4E041C1624FF42C
:1034C0006051016300214163016448F20001C0F2D0
:1034D000BF418160C16941F08051C16147F2000084
:1034E000C4F20000006840050BD541F62000C4F28C
:1034F0000000016821F000710160016841F0007175
:10350000016042F20000C4F20200016841F0900143
:1035100001600168C90503D5016821F400710160EB
:10352000FFF712FC4FF0006044F8800C10BD000063
:10353000F0B581B02DED048B82B044F20044C4F2AA
:103540000004204640F2255100F0CAF9002800F09E
:10355000CA80204600F030FAC1B20D2902D00A29F3
:1035600040F0948040F2A816C2F20006307840F293
:103570006811C2F20001002700280F5400F0AD804E
:1035800040F26810C2F2000098A10922FCF70AFE7E
:10359000002800F0928040F26815C2F2000596A162
:1035A00028460A22FCF7FEFD002800F081802868EA
:1035B00044F25711C4F24B51884279D040F268105E
:1035C000C2F200008FA10822FCF7ECFD002879D0A0
:1035D00040F26810C2F200008DA10822FCF7E2FD63
:1035E00000286FD040F26810C2F200008BA10822C0
:1035F000FCF7D8FD00286AD040F26810C2F2000043
:1036000089A10822FCF7CEFD002860D040F26810A6
:10361000C2F2000087A10522FCF7C4FD002856D0A5
:1036200040F26810C2F2000084A10C22FCF7BAFD3F
:1036300000285DD040F26810C2F2000083A1082289
:10364000FCF7B0FD002858D040F26815C2F2000522
:1036500081A128460F22FCF7A5FD002852D040F298
:103660006815C2F2000580A128460922FCF79AFDE0
:1036700000285AD040F26815C2F200057DA1284604
:103680000522FCF78FFD40BB681D50E040F2A811F9
:10369000C2F200010A783E2A07D8531C0B7040F290
:1036A0006811C2F20001885418E00020087015E08B
:1036B00040F62910C2F200000DE040F62610C2F2DA
:1036C000000008E040F62010C2F2000003E040F6DF
:1036D0002110C2F20000012101703770204640F233
:1036E000255100F0CDF802B0BDEC048B01B0F0BD67
:1036F00040F62710C2F20000EDE740F62810C2F2B3
:103700000000E8E705F10F0001A9019001F000F8C1
:103710000198B0EE408A01782C291ED1013001A910
:103720000A22FCF74CFD054618E005F1090000F0FF
:1037300033FF51EC100BFCF723FF40F25811C2F29B
:103740000001086040F60B10C2F200000021017079
:1037500040F62510C2F20000BDE70025019801786F
:103760002C2906D1013001A900F0D2FFB0EE409A19
:1037700001E09FED429A019801782C2905D1013092
:1037800001A90A22FCF71BFD00E00020B5EE408AEB
:10379000F1EE10FAA1DD002D9FD0B5EE409AF1EECA
:1037A00010FA9ADD411E092997D840F25811C2F249
:1037B000000181ED008A40F60C11C2F200010D609B
:1037C00040F61411C2F2000181ED009A40F610118A
:1037D000C2F20001087040F60B10C2F20000012195
:1037E000017040F62510C2F2000075E753544152B3
:1037F000545F45495300000057414B455F535441C6
:10380000434B000042515F524553455400000000B5
:1038100052455345545F42510000000042515F53EE
:103820004C45455000000000534C4545505F425107
:1038300000000000534C45455000000053544152D5
:10384000545F53494E474C450000000053544F50BD
:103850005F454953000000005345545F4549535F9D
:10386000434F4E4649473A005345545F46524551EF
:103870003A000000465245513A00000000000000A6
:10388000090A012202FA01F1C943018070470000D0
:10389000C1F3421301F01F0C1421022B08BF1021A9
:1038A000012B4FF0010308BF0C21002A03FA0CF290
:1038B00043580CBF23EA02021A43425070470000EB
:1038C0008289002918BF012122F4005242EA4131C5
:1038D000818170470088084018BF012070470000B0
:1038E000C1F34212022A06D0012A14BF00F11402C9
:1038F00000F10C0201E000F110021288008801F0D2
:103900001F03090ADA40C840104000F00100704768
:1039100070B586B00446008A0D46C98820F4405030
:1039200008432082A0894EF6F3110840A9882A890D
:103930006B89084310431843A081A08AA98920F409
:10394000407008436E46A0823046FEF749FD43F6BC
:103950000000C4F2010084420BD045F20040C4F2E2
:103960000100844205D045F20000C4F20100844207
:1039700002D106F10C0001E006F1080000682A6897
:10398000192148439100B0FBF1F048F21F51C5F2F4
:10399000EB11A0FB01235A096FF0630302FB030044
:1039A000322303EB0010A0FB0101C1F3431040EAF6
:1039B0000210208106B070BD80886FF35F207047D1
:1039C0006FF35F21818070474FF4165100224FF44E
:1039D000402380E80E0082817047000010B540F659
:1039E0000044C4F2010420464FF400510022FEF7C7
:1039F0002BFA20464FF400410022FEF725FA20461C
:103A00004FF480510022FEF71FFA41F27070FDF76B
:103A10000FFC20464FF480510122FEF715FA10BD2D
:103A200010B508200121FEF7CFFC40F60044C4F297
:103A3000010420464FF480510122FEF705FA20468A
:103A40004FF480510122FEF7D1F920464FF4005186
:103A50000122FEF7CBF920464FF400410122FEF788
:103A6000C5F920464FF480510122FEF7EDF92046BA
:103A70004FF400510022FEF7E7F920464FF40041D1
:103A80000022FEF7E1F910BD80B5FFF7C9FFFFF78F
:103A9000A5FF43F60040C4F20100FEF7DBF943F650
:103AA0009820FDF7C5FB43F69820FDF7C1FB43F6D0
:103AB0009820FDF7BDFB43F69820FDF7B9FB43F6D0
:103AC0009820FDF7B5FB43F69820FDF7B1FB43F6D0
:103AD0009820FDF7ADFB43F69820FDF7A9FB43F6D0
:103AE0009820FDF7A5FB80BD2DE9F04782B040F698
:103AF0002C19C2F2000990468A460A9C074648469D
:103B000040217F221D46FCF73BFB200140B2691E8D
:103B100001EAD010204340F080004E4644F00801F6
:103B200006F8010B182904BF89F8017009F1020693
:103B30009AFA9AF026F8020B4DB1A8F1010000BFE5
:103B400010F8011F013D2A0606F8011BF8D1A6EB6B
:103B5000090440F6004848462146C4F20108FDF732
:103B600007FB41F62661C2F20001088049783070F7
:103B7000717040464FF480510022A61CFEF764F994
:103B80000A20FDF755FBB4F1FF3F1ADB48F2A067AE
:103B90000020C0F2010708F540550DF1060A002487
:103BA00019F8001028463A46FFF7BAF8B0B9284687
:103BB00051463A46FFF7A0F880B90134E0B2864298
:103BC000EEDC0A20FDF734FB40464FF48051012221
:103BD000FEF73AF90A20FDF72BFB07E040464FF4C9
:103BE00080510122FEF730F94FF0FF36304602B027
:103BF000BDE8F087F0B581B0069D40F2B81740F2FD
:103C0000B014013DC2F200070026C2F20004072DE5
:103C10003E60266066604CD8DDF81CC0DFE805F029
:103C200004070C1317212D3B2270012338E012BA30
:103C3000120C2280022333E0130C2370130A6370EA
:103C4000A27003232CE012BA2260042328E0237020
:103C5000130E6370130CA370130AE3702271052313
:103C60001EE01E0A6370130EA370130CE370130A98
:103C7000267023716271062312E01E0C26701E0A44
:103C8000A370130EE370130C2371130A6670637133
:103C9000A271072304E012BA1BBAC4E90032082358
:103CA00040F2B012C2F20002CDF800C0FFF71CFFD4
:103CB0003860386801B0F0BD4EF62350CEF20000F7
:103CC000F02101707047000070B5002644F20045F5
:103CD0000446CFF6FE76C4F2000500BF28468021D8
:103CE000FFF7F8FD18B90136F8D3204670BDE1B2F0
:103CF0002846FFF765FE204670BD00002DE9F04321
:103D000089B08146092001214FF00108FEF75CFBD4
:103D10004FF400300121FEF74BFB05AE3046FEF7B5
:103D200035F8102044F20045ADF814000220C4F22A
:103D300000050790042005F54847089038463146AD
:103D4000FDF752FF2020ADF8140006200024089053
:103D50003846314607948DF81880FDF745FF01AECF
:103D60003046FFF731FE4FF440200390284631469D
:103D7000CDE90194ADF81040FFF7CAFD284640F2A6
:103D800025510122FFF784FD2620C0F2001000908B
:103D90006846FEF7C1F828460121FFF791FD09B0FA
:103DA000BDE8F083B0B5012544F20044CFF6FE75BE
:103DB000C4F2000420464021FFF78CFD002D08BF0F
:103DC000B0BD002805F10105F4D0B0BD00F03AF90E
:103DD0004FF4E130FFF792FFFDF7E6FE40F2D81016
:103DE00040F60011C2F20000C2F20001FDF7ACF98A
:103DF00041F6246540F25C1040F6281440F6231981
:103E000040F6241A40F2C51840F2C41B40F2CC1709
:103E1000C2F200050026C2F20000C2F20004C2F2A3
:103E20000009C2F2000AC2F20008C2F2000BC2F29C
:103E300000072E7006701AE040F2D8110020C2F27E
:103E4000000108222670FDF7D7FD40F25C10C2F297
:103E500000000670002088F800608BF800602E706B
:103E600089F800608AF800603E70FDF7AFFE2078A8
:103E70000028E1D140F62911C2F200010878C0B152
:103E800040F25C10C2F200000E700670002088F84C
:103E900000608BF800602E7089F800608AF800607E
:103EA0003E70FDF793FEFDF77BFF5DA001F072F918
:103EB000DDE740F62011C2F200010878E0B140F2DF
:103EC0005C10C2F200000E700670002088F80060DE
:103ED0008BF800602E7089F800608AF800603E70F0
:103EE000FDF774FE00201821FDF70AF9FDF758FFD1
:103EF0004EA001F04FF9BAE740F62111C2F20001DD
:103F0000087810B30E7040F2D8110020C2F2000100
:103F10000822FDF771FD40F25C10C2F2000006704D
:103F2000002088F800608BF800602E7089F800602F
:103F30008AF800603E70FDF749FE00200821FDF779
:103F40008FF83DA001F026F991E740F62510C2F266
:103F500000000078C8B140F62510C2F200000670DB
:103F600040F25810C2F2000090ED000AB5EE400A8F
:103F7000F1EE10FA09DD40F25810C2F200000068BC
:103F800040F26011C2F20001086040F62711C2F24F
:103F90000001087870B140F25C10C2F200000E70AF
:103FA0000670012088F800608BF80060FDF70EFEB7
:103FB0000120287040F62611C2F20001087870B185
:103FC00001200E70FDF702FE40F25C10C2F200000C
:103FD0000121017088F800608BF800602970287852
:103FE000012808D140F61810C2F200000660FFF761
:103FF00013F92E703BE799F8000038B10A20FDF75D
:1040000009F9FFF797F989F8006030E79AF800009E
:1040100000283FF42CAFFEF76BFF8AF8006026E71C
:1040200041434B5F57414B450D00000041434B5FFF
:1040300052455345540D000041434B5F534C454599
:10404000500D000080B540F20C00C2F20000006884
:1040500048F21F51C5F2EB11A0FB01014809FFF71F
:104060007DF980BD0FB4054B10B503A9044A029831
:1040700000F0E4FC10BC5DF814FB0000C93C000833
:104080000000002003B401984100009850EAC120CC
:1040900018BF04204A0D18BF40F0010040F2FF7223
:1040A000B2EB515F08BF40F00200012808BF0520B5
:1040B00002B0704700487047040000200000000074
:1040C00070B59B482DED020B2DED068B079D25F05D
:1040D0000044A04218DC9748844202DC0AD10698CA
:1040E00040B19DED060BBDEC068B02B0BDE8704003
:1040F00000F09ABB002DCCBF9FED8F0B9FED900B76
:10410000BDEC068B02B070BD8F48A04215DD8F4814
:10411000A042D8BF4FF0FF3458DD9DED060B51ECA7
:10412000100BFFF7AFFF042808BF00F091FB9DEDD7
:10413000060BBDEC068B02B070BD9DED060B51EC7D
:10414000100B01F01AF8CDE9060181489FED828B32
:10415000A0423CDD8248A0421FDD00249FED82ABDF
:104160009DED060B53EC1A2B51EC100BFCF760F88D
:104170009DED060B41EC190B53EC1A2B51EC100B77
:10418000FCF7FDF853EC182BFCF7F3F853EC192B64
:10419000FCF767F9CDE9060149E09DED060B012426
:1041A00053EC182B51EC100BFCF742F89DED060B6D
:1041B00041EC190B53EC182B51EC100BFCF7D9F810
:1041C00053EC192BFCF74DF9CDE906012FE06848B7
:1041D000A0421FDD02249FED689B9DED060B53EC72
:1041E000192B51EC100BFCF7CAF853EC182BFCF709
:1041F0001FF89DED060B41EC180B53EC192B51ECFD
:10420000100BFCF7B6F853EC182BFCF72AF9CDE9A4
:1042100006010CE09DED060B032453EC102B9FEDE3
:10422000580B51EC100BFCF71CF9CDE906019DED84
:10423000060B53EC102B51EC100BFCF7A0F841ECE3
:10424000180B53EC182BFCF79AF841EC190B4E485D
:104250000621B0EE490AF0EE690A784400F068FAE7
:1042600053EC182B51EC100BFCF789F841EC180BB0
:104270004648B0EE490AF0EE690A0521784400F09C
:1042800057FA53EC192B51EC100BFCF778F841EC72
:10429000100B51EC180B53EC102B002C0EDAFBF723
:1042A000C7FF9DED061B53EC112BFCF768F89DED45
:1042B000061B53EC112BFCF75FF835E0FBF7B8FF5A
:1042C0009DED061B53EC112BFCF759F841EC100B3C
:1042D0002F48784400EBC40090ED001B51EC100B0C
:1042E00053EC112BFCF745F89DED061B53EC112BFD
:1042F000FCF73FF841EC100B2648784400EBC40073
:1043000090ED001B51EC100B53EC112BFCF734F823
:1043100041EC100B002DA2BFBDEC068B02B070BDAE
:1043200051EC100B81F0004141EC100B01E7000053
:10433000000010440000F07F182D4454FB21F93F89
:10434000182D4454FB21F9BF0000DC3F0000203E43
:104350000000F33F00000000000000000000F03FFC
:104360000000E63F000000000000000000000040E8
:104370000080034000000000000000000000F83F43
:10438000000000000000F0BFC20F0000780F000026
:10439000020F0000BA0E000070B56F4E2DED040B39
:1043A0002DED048B82B0DDF824C0DDE907235C42EB
:1043B0002CF000411C4341EAD474069D22F00040D9
:1043C000B44205D86C422C4340EAD474B4420BD9B1
:1043D0009DED081B9DED060B02B0BDEC048B04B0F7
:1043E000BDE8704000F02ABAACF14054A4F17F64FB
:1043F0001C430BD0022404EAAC7444EAD274054393
:104400009FED578B9FED582B07D015E09DED060BC8
:1044100051EC100B00F0A9FE42E0002C11BF012C62
:104420009DED060B02B0BDEC048B04BF04B070BD63
:10443000022C38D0032C3BD00B439FED4D1B9FED3E
:104440004E0B0AD0B14218D1B04209D121F08041BF
:1044500020F08040099107900FE0002A15DA10E063
:10446000474B7B44002C08BF93ED000B0DD0012C73
:1044700010D0022C17D0032C1AD0B0421DD1002A24
:1044800003DAB0EE410AF0EE610A02B0BDEC048B33
:1044900004B070BD93ED000B51EC100B81F00041A6
:1044A00041EC100BF1E7B0EE480AF0EE680AECE7D9
:1044B000B0EE420AF0EE620AE7E7401A00159FEDFF
:1044C000329B3C28C8BF8DED000B17DCBCF1000F00
:1044D000BCBF10F13C0F8DED009B0FDB9DED080B79
:1044E00053EC102B9DED060B51EC100BFBF7B9FFB5
:1044F00000F043FE00F039FECDE90001B4B1012C1B
:1045000010D0022C9FED220B53EC102B9DED000BD5
:1045100051EC100B19D0FBF72CFF53EC182BFBF7C9
:1045200028FFBDE7019880F0004001909DED000B51
:1045300053EC192B51EC100BFCF724FA04BF0220AA
:1045400000F0ACF99DED000B9FE7FBF712FF53EC79
:10455000182BFBF711FFA3E70000F07F000000001D
:10456000182D4454FB210940182D4454FB2109C047
:10457000182D4454FB21F9BF182D4454FB21F93F59
:10458000EA0D000000000000000000000000000034
:10459000075C143326A6A13C30B583B0044600F076
:1045A00067F99FED090B05468DED000B01230022F5
:1045B00021466846FCF7E3F8284600F06FF99DEDC8
:1045C000000B03B030BD0000000000000000000040
:1045D00010EE100AC0F3C7517F391729A8BF7047E2
:1045E000DFED140A002970EE200A0CDAF5EEC00A9D
:1045F000F1EE10FA1ADD0028C8BF4FF07E50B8BFA8
:104600004FF0004012E00C4A22FA01F2104208BFBB
:104610007047F5EEC00AF1EE10FA07DD002804DD60
:104620004FF4000323FA01F10844904300EE100A0E
:1046300070470000CAF24971FFFF7F0010B52DEDF1
:10464000028BB0EE408A18EE100AFCF708F901EE72
:10465000100A18EE100AB7EE000A78EE410A10F0C0
:10466000004F4FF07F4010EE901A12D0B1F13F4F43
:1046700024BF10EE901AB0EB410F12D210EE901A38
:10468000B1F17C5F1CDD10EE901AB0EB410F17D337
:1046900014E0B1F13F4F07D910EE901AB0EB410F83
:1046A00002D331EE401A0BE010EE901AB1F17C5FAC
:1046B00006DB10EE901AB0EB410F01D331EE001A79
:1046C00018EE100ABDEC028B11EE101A61F31E00F9
:1046D00000EE100A10BD10B52DED028BB1EEC08AB0
:1046E00018EE100A20F00040C0F1FF40C00F0AD0C1
:1046F00010EE100A20F00040C0F1FF40C00F04BFD0
:10470000012000F0CBF8B0EE480ABDEC028B10BDE2
:1047100008B59FED060A0A4601468DED000A684677
:10472000FCF762F89DED000A08BD000000000000E3
:1047300070B504462DED028B4D1E00EBC500B0EEAA
:10474000408AF0EE608A90ED000B35F0060017D03D
:1047500053EC182B51EC100BFBF711FE41EC100B36
:104760006D1E04EBC50090ED001B51EC100B53ECDB
:10477000112BFBF75DFD41EC100B35F00600E7D186
:10478000022D36D0042D1CD0062D1CBFBDEC028B93
:1047900070BD53EC182B51EC100BFBF7F0FD94EDB2
:1047A0000A1B53EC112BFBF743FD53EC182BFBF7C3
:1047B000E6FD94ED081B53EC112BFBF739FD41ECA2
:1047C000100B53EC182B51EC100BFBF7D8FD94EDAC
:1047D000061B53EC112BFBF72BFD53EC182BFBF7AF
:1047E000CEFD94ED040B53EC102BFBF721FD41ECB7
:1047F000100B53EC182B51EC100BFBF7C0FD94ED94
:10480000021B53EC112BFBF713FD53EC182BFBF79A
:10481000B6FD94ED001B53EC112BFBF709FDBDEC2D
:10482000028B41EC100B70BD10B553EC102B51EC0A
:10483000100BFBF7FDFC41EC100B10BD10B553EC59
:10484000112B51EC100BFBF7F3FC41EC100B10BDDE
:104850009FED050B10B553EC102B51EC100BFBF733
:104860008EFD41EC100B10BD000000000000001098
:1048700001480068704700000400002002E008C8FA
:10488000121F08C1002AFAD170477047002001E0CA
:1048900001C1121F002AFBD17047000001490860C6
:1048A00070470000040000202DE9FF5F82B0002166
:1048B000DDE90430020DDDF840B0034318D044F6C2
:1048C0001050A2F2FF3242431514119801281FD054
:1048D000A5EB0B00401C5FEA000A4FF000064E4FAC
:1048E000DFF83891B046504615D5CAF1000413E000
:1048F000119801244AA3012801D16FEA0B01029803
:10490000119AC0E90031C0E9024206B0BDE8F09F4B
:10491000CBF10000DFE704460021404A491842EB92
:104920000450CDE9001012E0E00707D032463B46C4
:1049300040464946FBF723FD8046894632463B46C2
:1049400010461946FBF71BFD06460F466410002C67
:10495000EAD1DDE90401DDE90023BAF1000F06DA4E
:10496000FBF70DFD42464B46FBF709FD05E0FBF763
:1049700078FD42464B46FBF774FD04460E46002286
:10498000284BFCF717F803D84FF0FF30014607E03B
:104990000022254B20463146FBF74AFCFBF7DAFFA5
:1049A000102409E0002C0ADB0A220023FBF71AFE80
:1049B000039B30321A55641E50EA0102F2D1641C86
:1049C000039AC4F111031444119A012A03D001225D
:1049D00008430DD10AE0084304D000204FF0110B2A
:1049E000119072E7A3EB0B056D1E0DE05B4504DD36
:1049F0004FF0000205F1010504E003DA4FF0000278
:104A0000A5F10105002AECD002981199C0E9023104
:104A1000C0E9004579E70000000014400000F03FC5
:104A2000300000000000F0430000E03F30380A286A
:104A300001D2012070470020704700002DE9FF4F90
:104A400095B09B468946064600250FE2252877D17A
:104A500000242746F84A0121059400E0044316F893
:104A6000013F203B01FA03F01042F7D130782A28A9
:104A700011D06FF02F033078A0F13002092A16D838
:104A8000059A44F0020402EB820203EB4202104456
:104A9000761C0590EFE759F8042B0592002A03DAFB
:104AA000504244F40054059044F00204761C3078DF
:104AB0002E2816D116F8010F44F004042A280DD030
:104AC0006FF02F023078A0F13003092B09D807EBE3
:104AD000870302EB4303C718761CF3E759F8047BFE
:104AE000761C30786C280FD006DC4C2817D068284C
:104AF0000DD06A2814D104E0742810D07A280FD180
:104B00000DE044F400140AE044F4801401E044F49D
:104B100040147278824202D104F58014761C761C0F
:104B2000307866280BD013DC582877D009DC0028B1
:104B300075D04528F6D04628F4D047281AD19DE1F3
:104B400018E0632835D0642879D0652812D195E122
:104B5000702873D008DC6728F1D069286FD06E28E0
:104B60000DD06F2806D1B5E073282CD0752875D0EC
:104B7000782874D05A46179990476D1C75E1C4F394
:104B80000250022809D003280DD0D9F800100428BB
:104B90000DD00D6009F1040967E1D9F80010EA179A
:104BA000C1E90052F6E7D9F800100D80F2E70D7068
:104BB000F0E719F8041B8DF8001000208DF80100B3
:104BC000EA46012003E059F804AB4FF0FF306107DB
:104BD0004FF0000102D40DE008F101018846B9420E
:104BE0000FDA8045F8DB1AF808100029F4D108E044
:104BF00008F1010188468142FADB1AF80810002901
:104C0000F6D105985B46A0EB080721463846179A6F
:104C100000F094FA284400EB080507E04DE029E194
:104C20000DE01AF8010B5A4617999047B8F10108A0
:104C3000F7D25B4621463846179A13E142E00A2232
:104C40000092C4F302524FF0000A022A08D059F829
:104C500004CB032A4FEAEC710AD00DE029E02AE0E8
:104C600009F1070121F00702F2E802C1914609E0CB
:104C70000FFA8CFC4FEAEC71042A03D14FFA8CFC3A
:104C80004FEAEC71002907DA0A460021DCF1000C3A
:104C900061EB02012D2202E0220504D52B228DF8C2
:104CA0000420012203E0E20701D02022F7E790462A
:104CB00059E00A2102E010220DE010214FF0000A15
:104CC00000910BE010224FF0000A44F00404082782
:104CD000009203E008224FF0000A0092C4F302524F
:104CE000022A05D059F804CB0021032A08D009E094
:104CF00009F1070121F00702F2E802C1914605E03F
:104D00001FFA8CFC042A01D10CF0FF0C4FF00008B4
:104D1000220728D5702806D0009B83F0100353EAA1
:104D20000A0305D00EE040228DF80420012208E09D
:104D30005CEA010206D030228DF804208DF80500CF
:104D400002229046009B83F0080353EA0A030AD12B
:104D50005CEA010201D1620705D530228DF80420FA
:104D60004FF001087F1E582804D034A003900EA8ED
:104D700002900DE036A0F9E753466046009AFBF733
:104D800031FC84460398825C0298401E02900270B7
:104D90005CEA0100F0D1029806A9081A00F1200A85
:104DA000600702D524F4803400E00127574502DD76
:104DB000A7EB0A0000E0002000EB0A010090059834
:104DC0004144401A0590E00306D45B462146179AF9
:104DD000059800F0B3F90544002706E001A85A46FB
:104DE000C05D179990476D1C7F1C4745F6DBE003BB
:104DF0000CD55B462146179A059800F09FF90544AB
:104E000004E030205A46179990476D1C0099481EBF
:104E100000900029F5DC08E0029802995A460078D3
:104E2000491C0291179990476D1CBAF10001AAF133
:104E3000010AF1DC65E1000009280100303132335C
:104E400034353637383961626364656600000000C6
:104E500030313233343536373839414243444546B0
:104E60000000000000F058F90544761C3078002856
:104E70007FF4ECAD19B02846BDE8F08F620700D48E
:104E8000062709F1070222F0070CFCE80223E1469D
:104E900003F000485FEA080C02D00FF2702C0DE01E
:104EA0005FEA045C02D50FF2682C07E05FEAC47C7D
:104EB00002D00FF2602C01E0AFF2700C4FF0FF381F
:104EC00023F00043CDF850C065280CD006DC4528FF
:104ED00009D046281DD047283DD13DE0662818D08E
:104EE00067287ED138E00021112F01DB112000E07E
:104EF000781CCDE9000106A90EA8FFF7D5FCDDE975
:104F00000F010E9A03910021009207F1010A04910A
:104F10004DE04FF000400097CDE9011006A90EA822
:104F2000FFF7C2FCDDE90F0203920E9B11990022EC
:104F3000DDF80CA00093049211B9791C00EB010A72
:104F4000B7EB0A0004D4C0F1FF3007F1010A049066
:104F5000AAEB0700019044E0012F00DA01270021AD
:104F6000112F01DD112000E03846CDE9000106A92E
:104F70000EA8FFF799FCDDE90F010E9A03910021BD
:104F800004910092BA4621070CD40399514500DAE6
:104F90008A46BAF1010F05DD009AAAF10101515CC0
:104FA000302908D0B84202DA10F1040F06DA0121E4
:104FB000CDE9011015E0AAF10101E9E7002805DCBF
:104FC000049901440491AAEB000102E0411C5145FF
:104FD00000DD8A460499401A401C01904FF00040C1
:104FE0000290200704D40198504501DBCDF80480DD
:104FF00000208DF84F0002980DF14F07B0F1004FDF
:1050000025D02B200E9002984FF0020800280CDAD1
:10501000404202902D200E9007E00A210298FBF7F3
:10502000CBFA3031029007F8011DB8F10001A8F168
:105030000108F2DC02980028EFD1791E0E98087062
:10504000307800F0200040F0450007F8020D12A86B
:10505000C01B00F107081498007800B1012000EB94
:105060000A01019801EBE07105984144401A401E85
:105070000590E00306D45B462146179A059800F098
:105080005DF805441498007818B15A46179990476E
:105090006D1CE00324D55B462146179A059800F065
:1050A0004DF805441CE00498002807DBDDE9030106
:1050B000884203DD0098405C179901E01799302081
:1050C0005A469047049805F10105401C0490019848
:1050D000401E019004D12E205A46179990476D1C0E
:1050E000BAF10001AAF1010ADDDC05E017F8010BB5
:1050F0005A46179990476D1CB8F10001A8F10108B4
:10510000F4DC5B462146179A0598ABE62D000000BB
:105110002B000000200000002DE9F041044600258E
:105120001E461746880404D405E039462020B047BF
:105130006D1C641EF9D52846BDE8F0812DE9F041CB
:10514000044600251E469046C80301D5302700E0DE
:105150002027880404D505E041463846B0476D1C39
:10516000641EF9D52846BDE8F08110B541EC100B5E
:10517000FEF7A6FF51EC100B10BD82B0CDE9000187
:1051800021F0004001909DED000B02B051EC100B9E
:105190007047000010B5044601E0FEF795FD14F8D5
:1051A000010B04490028F8D1BDE810400A20FEF7A1
:1051B0008BBD0000000000204FBB610567ACDD3FE8
:1051C000182D4454FB21E93F9BF681D20B73EF3F2E
:1051D000182D4454FB21F93FE2652F227F2B7A3CA6
:1051E000075C143326A6813CBDCBF07A8807703C5F
:1051F000075C143326A6913CC4EB98999999C9BFD2
:10520000711623FEC671BCBF6D9A74AFF2B0B3BF06
:105210009AFDDE522DDEADBF2F6C6A2C44B4A2BFC6
:105220000D5555555555D53FFF8300922449C23F32
:105230006E204CC5CD45B73F513DD0A0660DB13F66
:10524000EB0D76244B7BA93F11DA22E33AAD903F78
:10525000000000000000000000404040404040408E
:105260004040414141414140404040404040404039
:1052700040404040404040404005020202020202DD
:10528000020202020202020202202020202020202C
:105290002020200202020202020290909090909040
:1052A00010101010101010101010101010101010FE
:1052B0001010101002020202020288888888888872
:1052C000080808080808080808080808080808085E
:1052D00008080808020202024000000059520008B3
:1052E0000000C1C081C1400101C3C003800241C2AE
:1052F00001C6C006800741C70005C1C581C440047E
:1053000001CCC00C800D41CD000FC1CF81CE400E2D
:10531000000AC1CA81CB400B01C9C009800841C83D
:1053200001D8C018801941D9001BC1DB81DA401AAD
:10533000001EC1DE81DF401F01DDC01D801C41DC7D
:105340000014C1D481D5401501D7C017801641D6AD
:1053500001D2C012801341D30011C1D181D04010BD
:1053600001F0C030803141F10033C1F381F24032AD
:105370000036C1F681F7403701F5C035803441F47D
:10538000003CC1FC81FD403D01FFC03F803E41FE2D
:1053900001FAC03A803B41FB0039C1F981F840383D
:1053A0000028C1E881E9402901EBC02B802A41EAAD
:1053B00001EEC02E802F41EF002DC1ED81EC402C7D
:1053C00001E4C024802541E50027C1E781E64026AD
:1053D0000022C1E281E3402301E1C021802041E0BD
:1053E00001A0C060806141A10063C1A381A24062AD
:1053F0000066C1A681A7406701A5C065806441A47D
:10540000006CC1AC81AD406D01AFC06F806E41AE2C
:1054100001AAC06A806B41AB0069C1A981A840683C
:105420000078C1B881B9407901BBC07B807A41BAAC
:1054300001BEC07E807F41BF007DC1BD81BC407C7C
:1054400001B4C074807541B50077C1B781B64076AC
:105450000072C1B281B3407301B1C071807041B0BC
:105460000050C190819140510193C05380524192AC
:105470000196C056805741970055C195819440547C
:10548000019CC05C805D419D005FC19F819E405E2C
:10549000005AC19A819B405B0199C059805841983C
:1054A0000188C04880494189004BC18B818A404AAC
:1054B000004EC18E818F404F018DC04D804C418C7C
:1054C0000044C184818540450187C04780464186AC
:1054D0000182C042804341830041C18181804040BC
:1054E000000000000102030401020304060708098A
:1054F000105500080000002068010000FC0D0008A5
:10550000A855000868010020C02400008C4800084D
:105510008142071790D003787D012350FE2397988E
:1055200023367723127A23287F4B1A7914291009FE
:105530003E04F8090A0A0A08050302010131180DA0
:105540000AD7233D8FC2753DCDCCCC3D0C223E1BEE
:10555000803E0C1E3EAE47213F0C19041AC0041BAE
:1055600020400C19041AC8041B20410C19041ACA43
:10557000042320421A7E0413C44224C01743136B31
:105580004314E0B54314C00C44080C34E05944D72C
:1055900093A844A474024564092E042B4842D029E0
:0855A0000841000000000000BA
:0400000508000149A5
:00000001FF
