:020000040800F2
:10000000C82600205D01000865010008670100089E
:10001000690100086B0100086D0100080000000084
:100020000000000000000000000000006F01000858
:10003000710100080000000073010008313C000855
:1000400077010008770100087701000877010008B0
:1000500077010008770100087701000877010008A0
:100060007701000877010008770100087701000890
:100070007701000877010008770100087701000880
:100080007701000877010008770100087701000870
:100090007701000877010008770100087701000860
:1000A0007701000877010008770100087701000850
:1000B0007701000877010008770100087701000840
:1000C0007701000877010008770100087701000830
:1000D0007701000877010008E13D0008770100087A
:1000E0007701000877010008770100087701000810
:1000F0007701000877010008770100087701000800
:1001000077010008770100087701000877010008EF
:1001100077010008770100087701000877010008DF
:1001200077010008770100087701000877010008CF
:1001300077010008770100087701000877010008BF
:100140007701000877010008DFF80CD000F04AFCC6
:100150000048004741470008C8260020064880475D
:1001600006480047FEE7FEE7FEE7FEE7FEE7FEE79C
:10017000FEE7FEE7FEE7FEE7153D0008490100083F
:10018000D2B201E000F8012B491EFBD270470022D9
:10019000F6E710B513460A4604461946FFF7F0FF86
:1001A000204610BD30B504460020034600E05B1C2D
:1001B000934203D2E05CCD5C401BF8D030BD2DE90A
:1001C000F05F93460F4680460446002604F0ACFDDF
:1001D000D0F80090824614F8015B2DB100F054FA7B
:1001E0000068405DC007F6D12B2D02D02D2D1AD00E
:1001F000641E0021CAF800105A463946204600F015
:1002000050FA014627B13868A04201D1C7F80080F2
:10021000DAF80000022809D0CAF80090700505D568
:100220004842BDE8F09F46F48066E2E70846F8E7FA
:100230002DE9FE4F804681EA0300C00F0C46009076
:1002400021F0004123F00045B8EB0200A94105D29E
:100250004046214690461C460B46024623F000408D
:10026000104347D0270DC7F30A00C3F30A51029089
:10027000401A019040286BDAC3F3130040F4801B4E
:100280000098924620B10023D2EB030A63EB0B0BDC
:1002900001985946C0F14002504600F0D4F9064694
:1002A0000D4650465946019A00F0DCF910EB080063
:1002B0006141002487EA115284EAE7731A4340D06F
:1002C000009A62B3019A012A4FEA075215DC001B1B
:1002D00061EB02014FF0004202EA0752CDE9004211
:1002E000001C41F5801132462B4600F0E5FA03B0C0
:1002F000BDE8F08F40462146F9E7001B61EB0201A3
:10030000001C41F5801300185B412018A2F500176E
:1003100047EB030140EAD570B6196D4111E06D0855
:100320004FEA360645EAC0754FEA0752001B61EBFB
:100330000201001C41F5801149084FEA3000001904
:10034000514132462B4603B0BDE8F04F00F0A5BA4C
:100350000098012240000023D0EB020263EBE0731F
:10036000009821464FEAE074B8EB000061EB04010D
:10037000E9E783F000435BE781F0004158E72DE9AE
:10038000FE4F81EA030404F0004421F00041009490
:100390004FF0000B23F0004350EA01045ED052EA14
:1003A00003045BD0C3F30A54C1F30A552C44A4F2EE
:1003B000F3340194A0FB0254C1F3130141F4801102
:1003C000C3F3130343F4801301FB024400FB034E09
:1003D000840A970A44EA815447EA8357A4FB0768D2
:1003E00002958D0A05FB07854FEA932C04FB0C54FC
:1003F0002705029D4FEA065847EA1637B5EB080570
:100400006EEB070C870E920E47EA811742EA8312C1
:10041000A7FB0201B6EB0B0164EB00042B0D43EAD2
:100420000C335E1844EB1C50DA465146E7FB0201E0
:10043000C5F313044FEA0B3343EA14534FEA043273
:10044000019C43EA0603A4F10C040294009CCDE94C
:1004500000B400F031FA03B0BDE8F08F002001468F
:10046000F9E72DE9F04D81EA030404F0004B21F097
:10047000004514464FF0000A23F0004150EA0502FF
:1004800020D054EA01021DD0C5F30A570246C5F335
:100490001303C1F31300C1F30A5640F4801543F46B
:1004A0008013A7EB0608101BD64608F2FD3873EB45
:1004B000050002D308F1010801E092185B41B8F190
:1004C000000F03DA00200146BDE8F08D00204FF454
:1004D0008011064684460EE0171B73EB050705D313
:1004E000121B63EB050306434CEA010C49084FEA73
:1004F000300092185B4150EA0107EDD152EA030047
:1005000012D082EA040083EA0501084305D0101BDB
:10051000AB4106D20122002306E000224FF0004347
:1005200002E06FF0010253101AEB06004CEB085189
:1005300010EB0A0041EB0B01BDE8F04D00F0ADB946
:100540000EB540F2334102910021CDE900110A4677
:100550000B4600F0B1F903B000BD00F0004230F0EE
:1005600000400AD0C10D01F56071C0F3160042EAE7
:100570000151C208400711437047002001467047EF
:1005800001F0004330B421F0004150EA010206D0EE
:100590000A0DA2F56072C1F31301002A02DC30BC1F
:1005A00000207047440F44EAC104C100E01830BC89
:1005B00000EBC25000F01CB930B50B4601460020DC
:1005C0002022012409E021FA02F59D4205D303FA15
:1005D00002F5491B04FA02F52844151EA2F1010296
:1005E000F1DC30BD2DE9F05F0546002092469B46C8
:1005F00088460646814640241BE028464146474639
:10060000224600F001FA53465A46C01A914110D3CF
:1006100011461846224600F016F82D1A67EB01081D
:100620004F4622460120002100F00DF817EB00098B
:100630004E41201EA4F10104DFDC484631462A4623
:100640004346BDE8F09F202A04DB203A00FA02F17D
:10065000002070479140C2F1200320FA03F31943B0
:1006600090407047202A06DBCB17203A41FA02F06F
:1006700043EAE07306E041FA02F3D040C2F12002FF
:100680009140084319467047004870474C5F000886
:1006900010B50446FFF7F8FF0068005D00F00100A8
:1006A00010BD2DE9F05F82460078002715468B4685
:1006B0000AF10104B946302801D09DB113E014F8C5
:1006C000010B0127782803D0582801D045B10AE052
:1006D0000DB1102D07D10027102514F8010B02E0F1
:1006E000082500E00A250026B0460EE005FB0800BC
:1006F00005FB06F1012701EB10461FFA80F8B6F55D
:10070000803F00D3B94614F8010B294600F08CF95C
:100710000028EBDABBF1000F05D00FB1641E00E03A
:100720005446CBF80040B9F1000F06D004F0FCFAB3
:1007300002210160C81EBDE8F09F48EA0640FAE7C2
:100740000FB40B0010B58AB00FA900910E994FF0AD
:100750000004234ACC60214CCDE9064200D004239A
:100760006FF00042CDE901321E4A089202466B4604
:10077000002000F0FBF90AB010BC5DF814FBF0B5E6
:1007800085B007464FF0FF300091CDE901011E46CC
:10079000002015460C4604903B466A46314604A8A4
:1007A000FFF7CEFF04990346601825B109B1024650
:1007B00000E022462A6000290ED0002B02DD0099BD
:1007C000814209D00094001BCDE901043B466A46F2
:1007D000314604A8FFF7B4FF05B0F0BDA50D000831
:1007E000C30D00089106000800230360FFF7C7BF90
:1007F0000029A8BF7047401C490008BF20F0010035
:10080000704710B4B0FA80FC00FA0CF050EA010412
:1008100004BF10BC704749B1CCF1200421FA04F4A4
:1008200011FA0CF118BF012121430843A3EB0C017D
:10083000CB1D4FEA00614FEA102042BF002010BCE0
:10084000704700EBC35010440029A4BF10BC704790
:10085000401C490008BF20F0010010BC704710B5D3
:1008600041000CD0C0F3C751962908DC7E2909DC71
:1008700006DB410204D000F0004040F07E5010BD85
:10088000002010BDC1F19604C4F1200100FA01F16D
:10089000E040FFF7ADFFA04010BD10B5141E73F18E
:1008A000000408DA401C41F1000192185B411A4330
:1008B00001D120F0010010BD2DE9F04D92469B467C
:1008C00011B1B1FA81F202E0B0FA80F22032904622
:1008D000FFF7B9FE04460F4640EA0A0041EA0B0161
:1008E00053465A46084313D0114653EA010019D023
:1008F000C8F14002504600F087F805460E465046C3
:1009000059464246FFF79FFE084305D0012004E008
:1009100020463946BDE8F08D0020054346EAE076E2
:100920002C4337430A986305E40AA0EB0800002231
:10093000FD0A44EA47540A3002D500200146E9E79F
:10094000010510196941DDE9084500196941BDE853
:10095000F04DA2E7C1F30A52C1F3130140F2FF3395
:1009600041F480119A4202DA00200146704740F2B9
:1009700033439A42A2F2334202DC524200F044B8BE
:10098000FFF761BE30B5041E71F1000404DB4FF0C7
:100990000044404264EB0101141E73F1000405DBC6
:1009A0001C464FF00043524263EB04038B4208BFE6
:1009B000824230BD30B5041E71F1000404DB4FF0FB
:1009C0000044404264EB0101141E73F1000405DB96
:1009D0001C464FF00043524263EB0403994208BFA8
:1009E000904230BD064C074D06E0E06840F0010340
:1009F00094E8070098471034AC42F6D3FFF7A8FB01
:100A0000A4610008C4610008202A04DB203A21FA0E
:100A100002F00021704721FA02F3D040C2F1200217
:100A200091400843194670473A2800D2303820F0E8
:100A30002002412A01D3A2F13700884201D34FF0AE
:100A4000FF3070472DE9FF4F087883B09946FF28A3
:100A500005D0491C2D2804D00024002008E00020E7
:100A60000BE00124F9E700EB800003EB4000491C98
:100A70000B78FF2BF7D104B1404200230293147886
:100A800019461D462D2C01D02B2C04D1521C2D2C87
:100A900013D000240294AA461478FF2C0FD00A2504
:100AA000A3FB057801FB05814FF0000C03FB0C1143
:100AB000521CE3194AEB0101EEE70124EAE7814405
:100AC00053EA010002D019F5C87F06DA0398002125
:100AD000C0E9001107B0BDE8F08F0025AE4E2F46EB
:100AE000DFF8B882184600F07DF9CDE90001B9F1D0
:100AF000000002DAC9F1000400E004460023A74A1E
:100B00001AEB030B42EB045A12E0E00707D02A4627
:100B1000334638464146FFF732FC074688462A46A8
:100B2000334610461946FFF72AFC05460E46641068
:100B3000002CEAD1DDE90001B9F1000F5A46534615
:100B400006DAFFF78EFC3A464346FFF78AFC05E0DB
:100B5000FFF715FC3A464346FFF711FC029A0AB12B
:100B600081F00041039AC2E90001B3E72DE9FF4F8C
:100B70001F468DB0D7E901464FF0FF382E2045467D
:100B80004FF000090B90B9696D1C0E988847396ABF
:100B9000824688470028F6D1BAF1FF3F0AD024F4F4
:100BA000D064002E11DDBAF12B0F08D0BAF12D0F51
:100BB0000BD102E0404611B08DE744F48064B9697E
:100BC0006D1C0E9888478246761E6946600501D5E1
:100BD0002D2000E02B208DF8000001F1010B0DF11C
:100BE000200809E0B9696D1C0E98884782460F9865
:100BF00044F40074761E0560002E02DDBAF1300F59
:100C0000F0D00B998A453ED144F0800406E00F995C
:100C1000681CA9F1010944F400740860B9696D1CED
:100C2000761E0E98884782463028F0D02BE00B992C
:100C30008A4505D1200603D444F08004761E18E0CE
:100C4000504604F02BFD08B30DF11302761EAAF1F5
:100C5000300044F40074934506D20BF8010B2006D3
:100C600007D5A9F1010003E0200602D409F1010033
:100C70008146A00502D50F99681C0860B9696D1CF2
:100C80000E9888478246002ED1DC53E0002E51DDBD
:100C9000BAF1650F02D0BAF1450F4BD1A00549D585
:100CA000B9696D1C24F44074761E0E9888478246FC
:100CB000002E0CDD2B2804D0BAF12D0F07D144F4FF
:100CC0008074B9696D1C0E9888478246761EE005CF
:100CD00001D52D2100E02B2108F8011BCDF82C8037
:100CE00021E00DF12901761E44F4007488450CD2F0
:100CF000AAF1300010F0FF0088F8000002D10B9933
:100D0000884509D908F1010806E0E00501D5244825
:100D100001E042F20F708146B9696D1C0E98884758
:100D200082460F980560002E04DD504604F0B6FCA4
:100D30000028D6D1F9690E988847FF208BF800006B
:100D400088F800000020069007904B466A4608A9E4
:100D500006A8FFF777FEA00502D46FF001002AE78E
:100D600014F0240F0AD0E00714D1DDE90612386828
:100D7000031D3B600068C0E900120BE0DDE90601DD
:100D8000FFF7FEFB0146E00704D13868021D3A6018
:100D90000068016028460EE7000014400000F03FA4
:100DA000F1D8FFFF426842B1016811F8013B23B15D
:100DB000521EC0E90012184670470121C160881E0A
:100DC000704742685AB1C368016843B983688B426F
:100DD00005D0491E521CC0E90012002070474FF098
:100DE000FF3070470EB540F2334202920022CDE947
:100DF00000221346FFF760FD03B000BD70B58C18EC
:100E000010F8015B15F0070301D110F8013B2A111E
:100E100006D110F8012B03E010F8016B01F8016B0B
:100E20005B1EF9D12B0705D40023521E0DD401F807
:100E3000013BFAE710F8013BCB1A921C03E013F8D0
:100E4000015B01F8015B521EF9D5A142D8D3002005
:100E500070BD0000002818BF012070472DE9F04147
:100E60002DED108BB5EE400AF1EE10FA40F3B7808D
:100E7000F5EE400AB0EE609AF1EE10FA40F3AF8062
:100E80000C46002900F0AB80B0EE408A00EE104A1C
:100E90009FED55AAB8EE40BA8AEE0BCA054600EEA1
:100EA000105AB8EE40DA8CEE0D0A88EE000A04F013
:100EB000FDF99FED4E1AB7EE00EA29EE011A81EE18
:100EC0000C1ABCEEC0CA9FED4A0A1CEE107A31EE35
:100ED0000EFA2FEE000A04F0E9F9FCEEC08A8EEE5D
:100EE000099A18EE908A00F0CDF9B1EE040A0028B4
:100EF00008BFB0EE40EA29EE0E0A04F0D7F92DEE55
:100F00000B1A81EE0A1AB0EE009AB4EE490AF1EE1D
:100F100010FAC8BFB0EE409AB0EE410A04F090F962
:100F200040F2FC10C2F20000B5F5437100F5D36247
:100F300098BF294682ED008A00F2846282ED00CAE1
:100F4000BCEEC91A00F5D06282ED001ABCEEC00AF0
:100F500000F5D16282ED000AC0F87C5600F5D2623D
:100F600090F8475682ED00FA00F29462C2ED008AD2
:100F7000C1F3034205F0F00590F84A662A4480F870
:100F800047260A0A80F8482680F84916C7F3024126
:100F900006F0F802114480F84A16390A90F84536EE
:100FA00080F84B16782101EBC40101F0780103F0C1
:100FB0008702114480F8451690F83016C8F30342B2
:100FC00001F0F001114480F830164FEA182180F842
:100FD0008C4680F84C7680F8311680F83286BDEC6D
:100FE000108BBDE8F08100BF0024F445DB0FC9C0C1
:100FF000000080492DE9F04182B00D4604460826E4
:101000000127002040F2052108220023CDE90076C7
:101010004FF0000803F0A8FA00204FF402710022FC
:1010200000230097019603F09FFA1826002040F253
:101030000521082200230097019603F095FA00206D
:101040004FF40271802200230097019603F08CFA7E
:1010500000204FF402712A460123CDF80080CDF81C
:10106000048001F09FFE287900F03F00207002B05C
:10107000BDE8F08170B582B019B314460D46082A58
:101080004FF0000618BFFF2C1DD100F0C5F895F8F1
:101090006316013800F01F0001F0E001084485F8F4
:1010A00063064FF4D46016FB005090F863260120CD
:1010B000CDE90004304603210023002403F054FA54
:1010C00007E0FF2405E0182C02D128B1FF2400E03E
:1010D000FF2460B202B070BD0646D6E770B582B09C
:1010E000E8B3044600F0CEF8022584F87056C0B389
:1010F000372084F87106082600203C2140F2372270
:1011000000230095019603F02FFA42F60140A4F85F
:101110005406002040F22E214FF4967200230095D1
:10112000019603F021FA49F20100A4F858060020C4
:1011300040F232214FF4C87200230095019603F06B
:1011400013FA052084F85C06012018260090002080
:1011500040F2362105220023019603F005FA02B081
:1011600070BD312084F87106082600203C2140F231
:10117000312200230095019603F0F6F90420182689
:10118000009000204FF40C714FF0A06200230196F4
:1011900003F0EAF902B070BD10B582B00C464FF012
:1011A000FF01B0BBACB300214FF0100C00914FF425
:1011B000E06122460223CDF804C001F0F3FD0828C7
:1011C00022D12046062100F047F9A179C2B291420E
:1011D0001CD1E179B1EB102F1AD140F671202179A1
:1011E000C2F200006279017040F67220C2F2000083
:1011F00040F67021027012F0EE00C2F2000118BF3A
:1012000001200870002104E0FF2102E0FF2100E03E
:10121000FF2148B202B010BD40F26110C2F20000DE
:101220000078704740F67120C2F2000000787047E5
:1012300040F67220C2F200000078704710B582B00C
:101240008C46082905D0BCF1180F03D0BCF1FF0F64
:1012500014D10020012100914FF4017104220023D8
:10126000CDF804C003F080F9044643F6982000F05E
:101270005BF943F6982000F057F900E0FF2460B2D4
:1012800002B010BD40F67020C2F200000078704736
:1012900006283CBF062070470D2828BF0D20704748
:1012A000B0B582B00D464FF0FF0138BB35B31446E0
:1012B00022B300214FF0100C009103212A46012394
:1012C000CDF804C001F06EFD072812D12846052193
:1012D00000F0C2F86979C2B291420CD1A979B1EBA0
:1012E000102F0AD12879002100F01F000130207052
:1012F00004E0FF2102E0FF2100E0FF2148B202B03C
:10130000B0BD000080B5FFF7C3FF40F26111C2F22B
:101310000001087080BD0000F0B583B01446082AB3
:1013200003D0182C03D0FF2C1ED1002500E0054669
:1013300091F82200042262F3C50081F8220000F037
:10134000E7020127284628210023CDE90074002662
:1013500003F00AF9284640F2C22108220023009730
:10136000019403F001F900E0FF2670B203B0F0BD74
:1013700010B582B08C46082905D0BCF1180F03D0F7
:10138000BCF1FF0F14D10020012100914FF4017135
:1013900002220023CDF804C003F0E6F8044643F629
:1013A000982000F0C1F843F6982000F0BDF800E066
:1013B000FF2460B202B010BD2DE9F04182B00C46AE
:1013C000054600270DF1070807E000BF642000F084
:1013D000ABF8022F07F101070ED2284621464246FC
:1013E000FFF75EFF0028F1D19DF80760FFF714FFBB
:1013F0008642EBD1002000E0FF2040B202B0BDE801
:10140000F0810000B1F8740640F26811C2F20001E8
:101410000A6840F2E613C2F2000312F1020F1880CC
:10142000DCBF642008600868421C00200A60704726
:101430000022C27280F86326C270C2810274827474
:10144000C0F81920C0F81D20A0F82120FF208872C4
:101450004FF0FF304860704780B501294FF6FF72AA
:1014600010DB45F6507C0138C0F6000C10F8013F47
:101470001FFA82FED2B25A403CF81220013982EAA9
:101480001E22F3D190B280BD06283CBF06207047D3
:101490000D2828BF0D20704747F21000EFF3108190
:1014A00072B6C4F200006FF4CB6100BF026821B1D4
:1014B00012F0020201F10101F8D041F62001C4F25C
:1014C00000010A6822F000720A600A6842F00072A5
:1014D0000A6050F8101C022262F34A2140F8101CE6
:1014E0006FF4CB61026821B112F0020201F1010137
:1014F000F8D16FF4CB6100BF026821B112F0020293
:1015000001F10101F8D062B67047000010B5002863
:1015100008BF10BD044600BF4FF47A70013C00F0D4
:1015200003F8002CF8D110BD80B54EF2180C40F233
:101530000C02CEF2000CC2F200025CF8041C12682D
:101540004DF68363C4F21B33A2FB03239A0C504372
:10155000DCF80030002808BF80BD01F1010E002139
:1015600002E000BF81420AD2DCF800209342F9D0A9
:101570001944891A9342134698BF7144F2E780BD1B
:101580002DE9F04383B01C4616460D4633B1102CAE
:1015900008D0FF2C48D14FF0FF0801E04FF00808B9
:1015A000002702E007464FF018084FF000093846C0
:1015B00040F2847132460223CDF80090019401F08C
:1015C000F1FBB088294600BA000CA5F8740600208B
:1015D000FFF718FF1020CDE90090002040F2357190
:1015E00032460123012601F0DDFB95F85F16044623
:1015F00001F0C000333085F85F06FFF743FE40F28C
:101600003921002838464FF023024FF0000300969E
:1016100008BF40F23321CDF8048002F0A5FF4FF45B
:101620007A70FFF781FF00E0FF2460B203B0BDE8ED
:10163000F0830000B0B582B01446182A91F85F26F6
:1016400005464FF0000018BF054602F0C0003D30CF
:1016500081F85F06FFF716FE0121009140F2392163
:10166000002828464FF02D024FF0000308BF40F23B
:101670003321019402F078FF44F62060FFF754FF15
:10168000002002B0B0BD0000F0B583B006460D46A4
:101690000020182A18BF064691F82016A52085F8C4
:1016A0001F0641F00600144685F820060127304643
:1016B0004FF44061A52200230097019402F054FFEB
:1016C00095F82026304640F601410023009701940A
:1016D00002F04AFFC0B203B0F0BD0000B0B582B066
:1016E0000D4600219C46102B18BF084600914FF470
:1016F000206101231446CDF804C001F053FB217989
:1017000001F00C000838B0FA80F0400985F81D1689
:1017100002B0B0BD2DE9F04782B0054691F82B0626
:10172000144640F001000E464FF00008182A18BF7A
:10173000454681F82B06C2B24FF0010A284640F216
:1017400073510023CDF800A0019402F00DFF307B0F
:1017500040F2452140F001003073C2B22846002318
:10176000CDF800A0019402F0FFFE4C2086F821067F
:1017700028464FF4B0614C220023CDF800A001941C
:1017800002F0F2FE284640F285510022002386F83E
:101790002286CDF800A0019402F0E6FE96F823061A
:1017A000082161F3030086F8230600F0F800020226
:1017B0004FF00209284640F28A51002386F8248619
:1017C000CDF80090019402F0CFFEFFF75BFDB0FA78
:1017D00080F196F82526490922F00F02C901002858
:1017E00008BF033286F82616D1B286F825260A02EB
:1017F0000028284640F28C514FF0000308BF803289
:10180000CDF80090019402F0AFFE96F8270640F262
:101810008E5169F3020086F8270600F0FA02284686
:101820000023CDF800A0019402F09EFEA020A6F8AF
:101830002C0628464FF4A8614FF420420023CDF82F
:101840000090019402F090FEFFF71CFD0146002875
:1018500018BF01214FF0020208BF6FF05F02C901FB
:1018600086F82E2686F82F164FF400720028284698
:1018700040F242514FF000030CBF4FF4204280323F
:10188000CDF80090019402F06FFE96F8311696F8AC
:10189000300696F83226090241EA00400244032746
:1018A000284640F2445100230097019402F05CFE68
:1018B00096F8330640F2475100F0E00086F8330610
:1018C000020428460023A6F834860097019402F00B
:1018D0004BFE96F8360640F24A5100F0E00086F8DA
:1018E0003606020428460023A6F83786009701949E
:1018F00002F03AFE96F8390640F24D5100F0F80039
:1019000086F83906020428460023A6F83A8600978E
:10191000019402F029FE96F83C064FF4AA6100F00B
:10192000E00086F83C06020428460023A6F83D861F
:101930000097019402F018FE96F83F0640F25351CA
:1019400000F0E00086F83F06020428460023A6F8CF
:1019500040860097019402F007FE96F8420640F296
:10196000565100F0F00086F8420602042846002393
:10197000A6F843860097019402F0F6FD96F8450616
:1019800040F259516AF3420086F8450600F0FB0226
:1019900028460023CDF800A0019402F0E5FD96F85A
:1019A0004526284640F259510023CDF800A0019465
:1019B00002F0DAFD96F84526284640F259510023F8
:1019C000CDF800A0019402F0CFFD96F82B0604217B
:1019D00061F3020086F82B0600F0FC02284640F274
:1019E00073510023CDF800A0019402F0BDFD96F8DC
:1019F0002B26284640F273510023CDF800A0019415
:101A000002F0B2FD96F8481696F8470696F8492671
:101A1000090241EA00400244284640F211510023E5
:101A20000097019402F0A0FD96F82B0640F2735146
:101A300069F3420086F82B0600F0FD0228460023D9
:101A4000CDF800A0019402F08FFD96F846064FF401
:101A5000A26100F0F0022846002386F84626CDF861
:101A600000A0019402F080FD96F8462628464FF427
:101A7000A2610023CDF800A0019402F075FD284674
:101A80004FF4AE6100220023A6F8288686F82A8645
:101A90000097019402F068FD96F84B1696F84A06F6
:101AA00096F84C26090241EA00400244284640F2DA
:101AB000145100230097019402F056FD002002B05B
:101AC000BDE8F0872DE9F04182B0054614460E4688
:101AD0000020182A18BF0546FFF7D4FB96F82716F2
:101AE00000284FF0030021F0070108BF052008443B
:101AF00086F82706C2B20127284640F28E510023FD
:101B00004FF003080097019402F02EFD707B4FF414
:101B1000117140F002007073C2B228460023009792
:101B2000019402F021FD307B052161F30200307346
:101B300000F0FD02284640F2452100230097019461
:101B400002F012FD96F8450640F2595140F00100AE
:101B500086F84506C2B2284600230097019402F099
:101B600003FD96F8450640F2595168F3020086F8E5
:101B7000450600F0FB02284600230097019402F07E
:101B8000F3FC002002B0BDE8F0810000F0B581B0A8
:101B90002DED108B9FED759AB0EE408A89EE000A0C
:101BA000B1EE04AA9FED72FAB2EE041AB4EE418AC5
:101BB000B0EE48CA0C46F1EE10FAC8BFB0EE41CA0A
:101BC00060EE0A8A88EE8F0A03F03AFBBDEEC00A87
:101BD00010EE105A0A2D28BF0A2500EE105AB8EE52
:101BE00040BA89EE0BEA9FED630AB7EE00DA2CEEFD
:101BF000000AF4EE4F8AF1EE10FA80EE0E0A30EE93
:101C00000D9A0ADD8EEE080A20EE0A0A03F04EFB5A
:101C1000BCEEC00A10EE106A01E047F6122600EE94
:101C2000106AB8EE40FA8EEE0FEA40F2E010C2F20F
:101C300000008DEE0CCA80ED00EAFFF723FB0028C0
:101C400008BFB0EE4ADA2CEE0D0A03F02FFBB0EE1F
:101C500000AA9FED491AB4EE4A0AF1EE10FAC8BF85
:101C6000B0EE40AA2FEE010A20EE0B0A03F0E8FACC
:101C700088EE0E1AB0EE408AB0EE410A03F016FB71
:101C800040F2F410BCEEC00AC2F2000080ED000A7F
:101C900004F28460B8EE401A80ED000A40F2EC10C5
:101CA00010EE107A2EEE010AC2F2000080ED000A5A
:101CB00004F5D060BCEECA0A80ED000A04F5D160DC
:101CC000BCEEC80A80ED000A9FED2C0AC4F87C66C1
:101CD00029EE000A03F0EAFA04F5D26181ED009AD8
:101CE000A6F5437194F84766C1F3034206F0F00687
:101CF00094F84A36324484F847260A0A84F848267B
:101D000084F84916C7F3024103F0F802114484F83D
:101D10004A16390A94F845C684F84B16782101EB27
:101D2000C50101F078010CF087021144BCEEC00A35
:101D300004F2946084F8451694F8301680ED000A99
:101D400010EE100AC0F3034201F0F001114484F8D0
:101D50003016010A84F88C5684F84C7684F83116D3
:101D600084F83206BDEC108B01B0F0BD0024F445C0
:101D700000E8FD46DB0FC9C0BD37063900008049C9
:101D80002DE9F04782B01F4690460C4633B1102F24
:101D900008D0FF2F6FD14FF0FF0901E04FF0080985
:101DA000002502E005464FF01809FFF76BFA0646DA
:101DB0000020009040F28B71284642460323002EFB
:101DC00008BF40F28671019700F0ECFF98F806100A
:101DD0008046481E84F84F1684F84D06C2B24FF074
:101DE000010A4FF40F7128460023CDF800A0002E01
:101DF00008BF40F23621CDF8049002F0B5FB94F80C
:101E00004E0640F23D276AF3020084F84E0600F0C9
:101E1000F902CDF800A0002E08BF40F2372728466F
:101E200039460023CDF8049002F09EFB94F84E064C
:101E3000052666F3020084F84E0600F0FD022846EF
:101E400039460023CDF800A0CDF8049002F08CFBB9
:101E500094F82B0640F2735166F3020084F82B06C7
:101E600000F0FD0228460023CDF800A0CDF8049034
:101E700002F07AFB01E04FF0FF084FFA88F002B061
:101E8000BDE8F087F0B583B005460020182A18BFDA
:101E9000054691F84506012767F3020014460E46F1
:101EA00081F8450600F0F902284640F25951002316
:101EB0000097019402F058FB707B4FF4117100F011
:101EC000FD022846002372730097019402F04CFB38
:101ED000307B40F2452167F30200307300F0F902D5
:101EE000284600230097019402F03EFB96F827064F
:101EF00040F28E5167F3020086F8270600F0F902DF
:101F0000284600230097019402F02EFB002003B026
:101F1000F0BD0000000000002DE9F04F81B02DED74
:101F20000C8B82B0002800F01381189F9FED90AABF
:101F30009FED8BBB9FED8CCB1D46924606468B4694
:101F400000F58B6900210024CDE900B01FE000BF3F
:101F5000BBF1000FC8F86014C8F8C814C8F83015F1
:101F6000C8F8981518BF4BF80410BAF1000F18BF45
:101F70004AF80410002D1CBF281980ED008A17B103
:101F8000381980ED000A0434342C00F0E18006EBAF
:101F9000040898EDE00A98EDFA1A20EE000A21EE06
:101FA000011A30EE010AB1EEC08A99ED00DA99ED1E
:101FB000019AB4EE488AF1EE10FA80F1AA802DEE73
:101FC0000D0A29EE091A30EE019AB1EEC90AB4EEF3
:101FD000400AF1EE10FA80F1A280B4EE4A9AF1EED6
:101FE00010FAB5DD98EDE00A99ED001A99ED012A95
:101FF00098EDFA3A20EE014A23EE025A34EE054AF1
:1020000021EE015A22EE026A21EE031A20EE020AA4
:1020100035EE065A31EE400A84EE054A80EE052A76
:10202000574608F58C6A08F5996B24EE040A22EEEF
:10203000021A30EE011AB1EEC10A8AED004A8BEDA8
:10204000002AB4EE400AF1EE10FA6ED6DBF800007A
:1020500008F5A66686ED000AFEF77FFA41EC180B3C
:10206000DAF80000FEF779FA41EC110BB0EE480AFD
:10207000F0EE680A02F0C8FF51EC100B53EC1B2B7A
:10208000FEF77DF953EC1C2BFEF7EBF9FEF778FA1F
:1020900098EDE00A98EDFA1A20EE000A21EE011AF6
:1020A00030EE010AB1EEC08AC8F89805B4EE488A4D
:1020B000F1EE10FA3ED699ED000A99ED011A20EEE4
:1020C000000A21EE011A30EE011AB1EEC10ABA4639
:1020D000DDF800B0189F0021B4EE400AF1EE10FACE
:1020E0002DD6BBF1000F04D008F5B36000684BF8A3
:1020F0000400BAF1000F1CBF30684AF80400002D3C
:102100001CBF281980ED008A019E002F7FF438AF94
:1021100039E703F018F90021B0EE408A4FE7B0EE3E
:10212000490A03F010F9002157E7B0EE410A03F025
:102130000AF98BE703F007F9B0EE408ABBE7B0EE8F
:10214000410A03F000F90021BBF1000FCCD1D0E728
:1021500002B0BDEC0C8B01B0BDE8F08F00BF00BF3A
:10216000000000000080664000000040FB210940A4
:10217000EF92932140F25810C2F2000000787047AD
:1021800010B540F60004C4F2010420464FF400717B
:10219000012200F019FA20464FF40071002200F0ED
:1021A00041FA10BD80B50246002840F60000C4F296
:1021B00001004FF4007118BF012200F033FA80BD16
:1021C00040F25811C2F200010A780978B0FBF2F22D
:1021D000B0FBF1F303FB11000D2102FB010080B203
:1021E000704700002DE9F0472DED0A8B92B0804634
:1021F00008460C46B0EE408AFFF7E2FF4EF64F412C
:10220000054680B2C4F6C461A0FB01018E080D2012
:1022100006FB105718EE100AFEF79FF9814640F2B0
:10222000FC108A46C2F200004FF4D46106FB0100A4
:10223000B9B200EB8101D1F86004D1F8C864FEF7AF
:102240008CF941EC180B3046FEF787F941EC190B7D
:1022500040F6A010C2F2000050F82500FEF77DF90C
:1022600041EC1A0B40F63C20C2F2000050F8250069
:10227000FEF773F941EC1B0B40F60820C2F2000098
:1022800050F82500FEF769F941EC1C0B40F6D4101C
:10229000C2F2000050F82500FEF75FF941EC100B88
:1022A00040F25810C2F20000007840F2F01140F203
:1022B000E812C2F20001C2F200020EAB09781278F5
:1022C00007C302A880EC0A8B07A04A4653468DED4F
:1022D0000C0BCDF80080019402F0FEFC12B0BDECB6
:1022E0000A8BBDE8F08700BF4549535F4441544124
:1022F0002C252E36662C25752C25752C252E36661C
:102300002C252E36662C252E36662C252E36662C50
:10231000252E36662C252E36662C25752C25752CFB
:1023200025750D0A000000002DE9F04F83B00C88E0
:10233000002C00F0C88000F12402019200F1180284
:10234000B1F800B0009200F12802002601274FF0FA
:10235000000E02920BE000BF3BFA07F20EF1040EF2
:1023600007F1010706F102065C4600F0AC80A7F118
:102370000108012202FA08FC14EA0C0FECD0D1F893
:102380000890B9F1120F1FD8012202FA09F40D22A8
:10239000C0F20402144217D05FEA0874019C0EF0E8
:1023A0001C024FF00F0358BF00F12004D4F800A026
:1023B00003FA02F55B46D1F80CB02AEA05050BFAE0
:1023C00002F29B462A4322600268032309F00F04AD
:1023D00003FA06F5AA43B44022430260C2680C79AE
:1023E000AA4304F00303B3401A43B9F1030FC260D8
:1023F00018BF19F0030208D0C26A8B78ED4303F0CE
:1024000003032A40B3401A43C2628268CB7822EAAF
:102410000C0203F0010303FA08F31A438260029DE1
:10242000022C02D0012C04D1009D2A6842EA0C0241
:102430002A60B9F1120F6FEA0C0A0FD8012202FAD2
:1024400009F212F0061F1FBF426802EA0A02C9F32E
:10245000001303FA08F31CBF1A4342605FEAC90283
:102460007FF57AAF40F20048C4F20108D8F80020A6
:102470005FEAC93442EA0C0358BF02EA0A03C8F80B
:102480000030D8F804205FEA893442EA0C0358BFD0
:1024900002EA0A03C8F80430D8F808205FEAC92421
:1024A00042EA0C0358BF02EA0A03C8F80830D8F819
:1024B0000C205FEA892542EA0C0358BF02EA0A03AE
:1024C000C8F80C3048E703B0BDE8F08F4FF6FF7155
:1024D000016000210F22C0E9021201717047000063
:1024E0002DE9F04140F63B1840F2E817C2F200082F
:1024F0000020C2F2000788F80000387040F259103E
:10250000C2F20000017840F258140629C2F2000419
:1025100004D301780D299CBF007820702078FEF745
:10252000B3FFFEF7EFFE207001F068FF40F69C0459
:1025300040F2F810C2F20004C2F200002146FEF799
:1025400059FD002021460024FEF726FE10B120464A
:10255000BDE8F08140F2FC15C2F2000500202946DA
:1025600008220024FFF790F840F69C06C2F200060D
:102570002846314600F010FB0020294600F0EAF81A
:1025800000203146FEF718FF0028E0D140F2FC148D
:10259000C2F2000400202146082200F0BFFA002009
:1025A00021460822FFF746F8002021460822FEF7C0
:1025B000B3FE2046FEF74EFC0124387088F8004038
:1025C0002046BDE8F0810000F0B585B00446A0F1DA
:1025D0008040A0F584304FEAB020154603280E460F
:1025E00005D80CA151F82000012100F021FB01AF1A
:1025F0003846FFF76BFF1020ADF8060000208DF87D
:10260000080020463946ADF804600395FFF78CFEBC
:1026100005B0F0BD0400000008000000100000003C
:10262000200000001823002A08BF2823C15070474B
:10263000B0B58AB0044606A8FFF748FF43F600404D
:10264000C4F2010084421BD043F20000C4F2010036
:10265000844238D141F20500012100F0E9FAA020BE
:10266000ADF81800022040F6000508900020C4F2E2
:102670000105099006A92846FFF756FE402019E0FB
:102680000920C0F20800012100F0D2FA4FF42040E6
:10269000ADF81800022008900020099040F60000D4
:1026A000C4F2010000F5806506A92846FFF73CFE4C
:1026B0004FF48040ADF818000020CDE9080006A9CD
:1026C0002846FFF731FE4FF0827001900020029003
:1026D0004FF000700390202004900720ADF8140004
:1026E00001A9204600F078FF2046012100F060FF9C
:1026F0000AB0B0BD10B5C17800294EF20011CEF27B
:1027000000011AD04EF60C52CEF2000212680723D6
:1027100023EA12220F23C2F1040C23FA02F24378B7
:10272000847890F800E003FA0CF322401A43120177
:1027300001EB0E0383F8002300E0803100780123D1
:1027400000F01F0203FA02F2C0F3421041F8202009
:1027500010BD00002DE9F04F83B008204FF00308B2
:102760000C46CDE9008000204FF4247100220023A4
:10277000002501F0F9FE0220182600900020082113
:1027800000220023019601F0EFFE94F8610601217A
:1027900061F3830084F8610600F0F70200910020E5
:1027A00007210023019601F0DFFE94F8620640F055
:1027B000010784F86276FEF72FFD94F8631601385E
:1027C00060F30401802084F8631684F864063804FA
:1027D000C9B240EA012000F180020020022100235A
:1027E000CDF80080019601F0BFFE4020C4F81950DA
:1027F00065772077FEF746FD00281CBF2420607710
:10280000D4F81A00637E02BA0520009000201F2130
:10281000019601F0A9FE264646F81E5F3571FEF7C7
:1028200031FD10B11420307004E02820A07708207A
:1028300084F82100D4F81F00A37F02BA4FF01808D3
:10284000052700202421CDE90078002501F08CFE29
:1028500094F86506192161F3040084F8650600F018
:10286000F90208264FF0010B00203E210023CDF88D
:1028700000B0019601F078FE237BE17A627B67F37A
:102880000203A07A237303F0FD0342F002026BF30C
:1028900004011B046273E17240F0010043EA02622A
:1028A00001F0E101A07242EA0121C0B20A18002041
:1028B00040F24321002384F866560097019601F008
:1028C00053FE94F8170640F2052140F0010084F809
:1028D0001706C2B200200023CDF800B0019601F027
:1028E00043FE94F8680694F86A1600F0C00001F000
:1028F000C00184F8680684F86A1641EA00424FF085
:10290000040A00201021002384F8675684F86956D1
:10291000CDF800A0019601F027FE4FF0020900203B
:10292000142100220023A4F86B56CDF800900196E4
:1029300001F01AFE00204FF4A06100220023CDF820
:1029400000A0019601F010FE94F846064FF4A26133
:1029500040F0080084F84606030600200022C4F870
:102960004756A4F84B560096019601F0FDFDA020B5
:1029700084F82C06FEF786FC01460222002818BFC8
:10298000012108BF6FF05F02CB0184F82E264FF4BF
:10299000007284F82F36002808BF4FF4204242EA24
:1029A000C11000F1204300204FF4A86100220096DE
:1029B000019601F0D9FD00204FF4A9610022002307
:1029C0000096019601F0D0FD00204FF4AA6100228C
:1029D00000230096019601F0C7FD94F845064FF4D8
:1029E000AB616BF3420084F8450600F0FB02002067
:1029F000002384F84456CDF80090019601F0B4FD10
:102A000094F82B064FF4AE6169F3420084F82B066C
:102A100000F0FD0200200023A4F8285684F82A566E
:102A2000CDF800A0019601F09FFD00204FF4B061A9
:102A3000002200230096019601F096FDFEF722FC8D
:102A400094F8271600284FF0020008BF042021F058
:102A50000701084484F82706C2B20720009000202E
:102A60004FF4B1610023CDF8048001F07DFD94F8AE
:102A70001E064FF4B46100F0F0020020002384F839
:102A80001E26CDF800B0019601F06EFD40F27510E3
:102A9000A4F86D060020162147F201520023CDF85C
:102AA0000090019601F060FD94F86F0640F27A21E3
:102AB00040F0790084F86F06C2B200200023CDF800
:102AC00000B0019601F050FD94F8520640F22A2120
:102AD00069F3020084F8520600F0FA020020002395
:102AE000CDF800B0CDF8048001F03EFD2046FEF7A1
:102AF000F5FA94F86506172161F3040084F8650679
:102B000000F0F70200203E210023CDF800B001962E
:102B100001F02AFD002003B0BDE8F08FF0B583B0CE
:102B200091F852060C46092161F3030084F852061D
:102B300000F0F90208270126002040F22A21002394
:102B40000096019701F010FD94F85206022161F3FE
:102B5000030084F8520600F0F2021825002040F22B
:102B60002A2100230096019501F0FEFC94F85306FB
:102B700040F22B2140F0010084F85306C2B200203D
:102B800000230096019701F0EFFC40F6B830FEF705
:102B9000CBFC002003B0F0BD70B582B090F8642685
:102BA0000C4662F07F0180F86416CAB2182501262F
:102BB0000020042100230096019501F0D5FC00209F
:102BC0004FF40171042200230096019501F0CCFC22
:102BD0004FF47A70FEF7A8FC1E2500BF42F2107079
:102BE000FEF7A2FC013DF9D100F0CAFD1025002638
:102BF000002040F23571224601230096019500F035
:102C0000D1F8002040F2457122460123009601953B
:102C100000F0C8F802B070BD002941F21C01C4F2F6
:102C200002010A680CBF22EA0000104308607047E6
:102C3000002941F21801C4F202010A680CBF22EA1D
:102C40000000104308607047B0B541F20401C4F2BF
:102C500002010B6840F20F2505EA93451B010C6841
:102C60006FF4F77342F2004241F2002CD1F820E0F9
:102C700058BF0223C0F2F402C0F27A0CE4032B44E2
:102C800005D4CC6BE407644608BF144607E00C6823
:102C9000A40340F60014C0F23D0458BF6446CD6B57
:102CA0006343C5F340040D68E340C5F38104CEF3EC
:102CB000021EDFE804F00209060819A252F82E20CD
:102CC00002E0624600E01A4602600D6846F25014C7
:102CD000C5F30315C0F60004655DEA4042600D6867
:102CE000C5F30225655D22FA05F585600D68C5F31B
:102CF000C225655D11A422FA05F5C5608D6A05F04F
:102D00000F05655DB2FBF5F24261896A0FA2C1F35E
:102D1000031132F81110B3FBF1F10161B0BD00BF36
:102D2000A0860100400D0300801A060000350C004B
:102D300040420F0080841E0000093D00010204068D
:102D4000080A0C1020202020202020200100020052
:102D50000400060008000A000C00100020004000DB
:102D600080000001000100010001000180B582B077
:102D7000013A9C4653B240F2DC1EC2F2000E002B18
:102D80008EF800200AD440F2DC12C2F200020123C5
:102D9000CDF800C001F062FB02B080BD002002B09F
:102DA00080BD000070B51D46059B40F2D816144644
:102DB000C2F20006002232603BB1FF2B0FD0102B75
:102DC0001DD12A46FFF7D2FF03E02A46FFF7CEFFC8
:102DD0003060063520462946FDF7D9F904E02A4639
:102DE000FFF7C4FF3060002543F60040C4F2010045
:102DF0002946224641F2883300F02CFB0246104659
:102E0000326070BD000000002DE9F04F83B01C4619
:102E100091468B46102B03D180464FF0180A0CE0E8
:102E2000FF2C07D0002C40F0F7804FF000084FF047
:102E3000080A02E04FF00008A2469BF81E064FF475
:102E4000B46100F0F00201208BF81E26CDE9000AE3
:102E500000200023002501F087FB40464FF421614C
:102E60004A46032300950194FFF79CFF102C01D1E3
:102E7000404602E0002C4FD1002099F804104FF496
:102E8000D46210FB02B787F8501499F805000B04C0
:102E900087F8510499F8062003F17F4387F85224FC
:102EA0000E0658BF0B0443EA0020104400EE100A3F
:102EB000B8EEC00AC7F8180310EE100AFDF74DFB74
:102EC0009FED570B53EC102BFDF759FA9FED560B66
:102ED00053EC102BFDF753FA9FED550B53EC102BD1
:102EE000FDF74DFA9FED540B53EC102BFDF747FA0D
:102EF0000646DBF87C060D46FDF722FB02460B4634
:102F000030462946FDF7ADFA02460B46FDF790F92B
:102F1000FDF736FBC7F858049BF81E06082161F33D
:102F200003008BF81E0600F0F8020120CDE9000A2C
:102F300000204FF4B4610023002501F015FB40464A
:102F40004FF421614A46032300950194FFF72AFFBD
:102F5000102C01D1404602E0002C4FD1002099F8FE
:102F600004104FF4D46210FB02B787F8531499F899
:102F700005000B0487F8540499F8062003F17F43F9
:102F800087F855240E0658BF0B0443EA002010446E
:102F900000EE100AB8EEC00AC7F8180310EE100AC7
:102FA000FDF7DBFA9FED1E0B53EC102BFDF7E7F955
:102FB0009FED1D0B53EC102BFDF7E1F99FED1C0B62
:102FC00053EC102BFDF7DBF99FED1B0B53EC102B93
:102FD000FDF7D5F90546DBF87C060E46FDF7B0FA9D
:102FE00002460B4628463146FDF73BFA02460B46A1
:102FF000FDF71EF9FDF7C4FAC7F85C040020009045
:10300000404640F28B714A4603230194FFF7CAFE03
:1030100040B203B0BDE8F08FFF20F9E700BF00BF6A
:10302000000000000000B440000000000000803EEE
:1030300045785290FC790540000000A09999C9BFDD
:103040002DE9F04F81B02DED068B8AB01F469046DA
:103050000D46102B02D10646182109E0FF2F05D09E
:10306000002F40F0DF810026082101E000263946CC
:1030700095F81E06029100F0F002012085F81E2648
:10308000CDE9000130464FF4B4610023002401F083
:103090006BFA304640F613214246272300944446FB
:1030A0000197FFF77FFE102F0795CDE90367CDF855
:1030B000248062D14FF4D4609FEDDF0B16FB0058E3
:1030C0009FEDE38A9FEDDE9B9FEDDFABA8F1040649
:1030D0004FF0000B57EC10AB05F27C69099808EB38
:1030E0000B025844017982F87C1243790D0682F86C
:1030F0007D32807982F87E024FEA014202F17F42FE
:1031000058BF0A0442EA0321084400EE100AB8EE50
:10311000C00A20EE080AC6F81C0310EE100AFDF7DC
:103120001CFA52463B46FDF72AF953EC192BFDF7E2
:1031300026F953EC1A2BFDF722F999ED000A054602
:10314000B8EE400A10EE100A0C46FDF706FA0246E9
:103150000B4628462146FDF784F902460B46FDF74B
:1031600067F8FDF70DFA0BF1030BC6F88403BBF10A
:10317000270F06F10406B1D164E0002F62D19FED64
:10318000AE0B079852EC101B9FEDAD0B089151EC64
:1031900010BB9FEDAD0B9FEDAE8A061F00275AECCA
:1031A000104B00F27C690692059100BF0998079ABE
:1031B000384401793A4482F87C1243790D0682F84A
:1031C0007D32807982F87E024FEA014202F17F422D
:1031D00058BF0A0442EA0321084400EE100AB8EE80
:1031E000C00A20EE080AC6F81C0310EE100AFDF70C
:1031F000B4F9089A069BFDF7C2F8059B5A46FDF7FD
:10320000BEF822465346FDF7BAF899ED000A054686
:10321000B8EE400A10EE100A8846FDF79EF9024605
:103220000B4628464146FDF71CF902460B46FCF7C3
:10323000FFFFFDF7A5F90337C6F88403272F06F132
:103240000406B3D1DDF81CB008219BF81E06039DCF
:1032500061F303008BF81E0600F0F80201200090D5
:1032600002984FF4B461019028460023002401F035
:103270007BF9DDF824800094049C284640F6132155
:10328000424627230194FFF78DFD102C62D1029056
:103290004FF4D4609FED680B15FB00B09FED6C8A76
:1032A0009FED679B9FED68AB061F59EC10AB0027A5
:1032B000089000BF08EB0700089A01793A4482F8A9
:1032C000CA1243790D0682F8CB32807982F8CC029B
:1032D0004FEA014202F17F4258BF0A0442EA032149
:1032E000084400EE100AB8EEC00A20EE080AC6F83C
:1032F0001C0310EE100AFDF730F952464B46FDF75D
:103300003EF853EC192BFDF73AF853EC1A2BFDF766
:1033100036F804460BF27C6090ED000A0D46B8EEDC
:10332000400A10EE100AFDF718F902460B46204637
:103330002946FDF796F802460B46FCF779FFFDF7A4
:103340001FF90337C6F8EC03272F06F10406B1D1A5
:10335000029868E0002C66D19FED370B029051EC8B
:10336000100B9FED370B0691089051EC100B9FED61
:10337000360B9FED378AABF10405002758EC106B34
:103380000BF27C69CDE9041009980BEB0702384475
:10339000017982F8CA1243790C0682F8CB3280791F
:1033A00082F8CC024FEA014202F17F4258BF0A0480
:1033B00042EA0321084400EE100AB8EEC00A20EEEB
:1033C000080AC5F81C0310EE100AFDF7C6F8089AA3
:1033D000069BFCF7D4FFDDE90432FCF7D0FF324650
:1033E0004346FCF7CCFF99ED000A0446B8EE400ACC
:1033F00010EE100A8A46FDF7B0F802460B4620464A
:103400005146FDF72EF802460B46FCF711FFFDF77B
:10341000B7F80337C5F8EC03272F05F10405B3D13E
:10342000029800E0FF2040B20AB0BDEC068B01B06C
:10343000BDE8F08F00BF00BF000000000000803E2C
:10344000D373ED7603370A40000000A09999C93F75
:10345000000080452DE9F04F81B040F60048C4F2ED
:10346000010817468946044640464FF48051002221
:103470009B460025FFF7D6F80A20FEF755F8B9F16C
:10348000000F06D02046FF215A4600F0DDF898B123
:1034900000250A20FEF748F840464FF480510122EB
:1034A000FFF7C0F80A20FEF73FF84D4518BF00258A
:1034B000284601B0BDE8F08F00260DF1020A002574
:1034C000204651465A4600F0ABF80028E1D10136BB
:1034D0009DF80200F5B24D453870DAD22046FF2142
:1034E0005A46013700F0B0F80028E9D0D1E70000D3
:1034F0002DE9F0472DED028B8AB040F25810C2F250
:10350000000090F8008040F63B10C2F2000090F8F6
:10351000009040F2F010C2F20000057840F2E8108E
:10352000C2F20000047840F26010C2F2000090F88D
:1035300000A040F26410C2F200000068FDF70DF830
:1035400041EC180BFDF76EFE0646FDF771FE0746CF
:10355000FDF798FE08900AA041460D224B46CDE9A2
:1035600006678DED048BCDE90054CDF808A001F07D
:10357000B3FB01F0D1F80AB0BDEC028BBDE8F087D7
:103580004549535F5354415455532C25752C25758B
:103590002C25752C25752C25752C25752C252E365E
:1035A000662C25752C25752C25750D0A000000004C
:1035B0000288002918BF012122F0400242EA81114D
:1035C000018070470089084018BF01207047000043
:1035D00080897047818170472DE9F04102880B880E
:1035E00002F4415C4A88B1F804E043EA0C03CC8859
:1035F0001A430D8942EA0E024E8922438F892A43DB
:10360000B1F80E8032433A4342EA08020280828BCC
:1036100022F400628283098A0182BDE8F081000001
:1036200070B50C460546561C28460121FFF7CAFF17
:1036300020B9013EF8D14FF0FF3070BD2846FFF7AA
:10364000C7FF2080002070BD70B50C460546561C93
:1036500028460221FFF7B6FF20B9013EF8D14FF00E
:10366000FF3070BD28462146FFF7B4FF002070BD33
:1036700010B541F20404C4F2020454F8040C40F4FE
:10368000803044F8040C41F6FF7000BF54F8042C5D
:10369000411E814203D212F400300846F6D054F89D
:1036A000040C800309D440F20C0040F60011C2F271
:1036B0000000C0F23D01016010BDFDF7EDFE42F2D9
:1036C0000000C4F20200016821F0030101600168FA
:1036D00041F00101016020684FF6FF712060206811
:1036E000CFF2C07140F400502060206840F4A06028
:1036F0002060206808402060E06B20F00300E06359
:103700002068E16B40F46C102060E16354F8040C15
:1037100040F0807044F8040C54F8040C8001FBD590
:10372000206820F003002060206840F00300206043
:10373000206800F00C000C28FAD110BD10B540F63E
:103740000044C4F2010420464FF400510022FEF769
:1037500069FF20464FF400410022FEF763FF204638
:103760004FF480510022FEF75DFF4FF47A70FDF7B1
:10377000DBFE20464FF480510122FEF753FF10BDBF
:1037800080B582B000F006FEFFF7D8FF43F6004098
:10379000C4F20100FEF74CFF42F6E060FDF7C4FE04
:1037A00042F6E060FDF7C0FE42F6E060FDF7BCFEC9
:1037B00042F6E060FDF7B8FE42F6E060FDF7B4FEC9
:1037C00042F6E060FDF7B0FE01204FF0080C0090DB
:1037D00000204FF4017110220023CDF804C000F046
:1037E000C3FE42F6E060FDF79FFE42F6E060FDF7A3
:1037F0009BFE42F6E060FDF797FE42F6E060FDF7C3
:1038000093FE42F6E060FDF78FFE42F6E060FDF7C2
:103810008BFE02B080BD000010B540F2FC14C2F275
:10382000000440F69C02C2F2000200202146002360
:10383000FDF7A6FE2046FDF70DFB40F2E811C2F2AF
:103840000001087010BD00002DE9F04F81B040F27A
:10385000FC1140F69C02C2F20001C2F200020020FC
:103860001023FDF73BFF40F2F0180028C2F20008D9
:1038700000F0CF8040F2FC1940F69C05C2F200092E
:10388000C2F20005002049462A461023FFF7D8FB64
:10389000002049462A461023FFF7B6FA40F63C2599
:1038A00040F6A01740F6D414C2F20005C2F2000799
:1038B00040F60823C2F20004C2F20003484629463B
:1038C0003A460094FEF728FB042088F8000040F2F6
:1038D0006010C2F200000478FEF74CFC002C00F0EF
:1038E0009A8040F2E51B0028C2F2000B50D040F64F
:1038F000742800244FF0340AC2F20008A0B2FEF788
:103900005FFC4EF64F4281B2C4F6C462A1FB0212C4
:1039100055F820109BF8003041F29C46C2F2000698
:1039200013FB0A6343F8201057F820109BF800306F
:1039300040F68876C2F2000613FB0A63920843F849
:1039400020100D2102FB11014FF4D46302FB0392FE
:1039500089B202EB81019BF8002041F6B016D1F844
:103960006034C2F2000612FB0A6242F82030D1F83D
:10397000C8149BF80020013412FB0A8242F8201080
:103980004E461FFA84F9FEF7F5FB8145B146B5D3E3
:10399000FEF7F0FB40F2E418C2F20008B8B140F2C2
:1039A00090060025C2F200069BF80000A9B206EBC3
:1039B000800090ED000A98F800000130C0B2FEF7D8
:1039C00011FC0135ACB2FEF7D5FB8442ECD300F01C
:1039D000A3FE98F80000013088F8000098F8000075
:1039E000E0B3002588F800509BF8000001308BF808
:1039F00000009BF8000018283CD841F6C460C2F2D1
:103A00000000012140F2F01801700020C2F200080D
:103A10004EE003204CE088B140F264150024C2F26D
:103A2000000500BF95ED000AA1B20120FEF7DAFB08
:103A30000134A6B2FEF79EFB8642F3D300F06CFE83
:103A400040F2FC11C2F2000100200822FEF71AFA2F
:103A50001AA002F0D7F900F05FFE25E041F6C4603D
:103A6000C2F20000012140F2F01801700020C2F201
:103A700000081DE040F2FC11C2F200010020082203
:103A8000FEF700FA0DA002F0BDF900F045FE40F28D
:103A90006010C2F2000005708BF8005088F80050EA
:103AA00040F2F018C2F200080020FEF77BFB042071
:103AB00088F8000001B0BDE8F08F00BF4549535FB2
:103AC000444F4E450D00000070B52DED028B40F2C5
:103AD0006014C2F20004207810B10120FEF762FBEE
:103AE000207840F2FC11C2F2000118B340F2E51058
:103AF000C2F20000027840F29003C2F2000353F8D1
:103B0000222040F21003C1F898260278C2F2000386
:103B100053F82240027840F2F403C2F2000303EBB0
:103B2000820292ED008A007840F27402C2F2000232
:103B3000155C21E040F26410C2F200000068C1F898
:103B4000980640F63C10C2F20000007880B140F6C2
:103B50004010C2F20000046840F64810C2F20000B3
:103B600090ED008A40F64410C2F20000057803E0B0
:103B70009FED1B8A0024002501F5D36696ED000A0F
:103B80000020FEF703F86CB1B5EE408AF1EE10FAB2
:103B900008DD3DB196ED000A2046F0EE480A2946C0
:103BA000FDF75CF940F2FC14C2F20004002021464B
:103BB0000822FDF7AFFD002021460822FDF782FF15
:103BC00040F2F010C2F200000121017040F2080042
:103BD000C2F20000017801310170BDEC028B70BDB2
:103BE0000000000080B540F2FC1140F69C02C2F2D9
:103BF0000001C2F2000200200023FEF7C1F840F2EB
:103C0000F010C2F200000221017080BDB0B5013891
:103C10000024B4EB106F18BFB0BD4EF21005CEF209
:103C20000005686000F002FD0720AC602860B0BDB0
:103C300010B540F65011C2F20001086841F2883315
:103C40000A30086040F64C10C2F2000002680A32E6
:103C500002600A689A4204BF00220A6002684FF2BA
:103C60001803C0F201039A4204BF002202600A68EE
:103C70004CF6CD43CCF6CC435A4349F699134FEA60
:103C80007202C1F699139A4205D840F65612C2F252
:103C900000020123137040F2FC1C0968C2F2000C00
:103CA0000168DCF880264FF47A735A4340F2F0142E
:103CB0009142C2F200040BD32278012A08D140F6C7
:103CC000571EC2F2000E01228EF800200022026070
:103CD0000268DCF8881659438A420AD321780229FF
:103CE00007D140F65811C2F2000101220A700021EA
:103CF00001600168B1F5FA7F0BD32178032918BF61
:103D000010BD40F65811C2F2000101220A700021D4
:103D1000016010BD10B54EF68854CEF20004206844
:103D20004CF2000240F47000206041F20000C4F246
:103D30000200416ACFF6FF0241F00401416241688E
:103D40001140416001684FF6FF72CFF6F6621140F4
:103D5000016001684FF6FF7221F480210160416823
:103D6000C0F20072114041604FF4E041C1624FF473
:103D70006051016300214163016448F20001C0F217
:103D8000BF418160C16941F08051C16147F20000CB
:103D9000C4F20000006840050BD541F62000C4F2D3
:103DA0000000016821F000710160016841F00071BC
:103DB000016042F20000C4F20200016841F090018B
:103DC00001600168C90503D5016821F40071016033
:103DD000FFF74EFC4FF0006044F8800C10BD00006F
:103DE0002DE9F0412DED048B82B044F20044C4F281
:103DF0000004204640F2255100F02CFA002800F083
:103E0000EB80204600F092FAC1B240F2CC170D29A7
:103E1000C2F2000702D00A2940F0B580387840F29B
:103E20006C11C2F20001002600280E5400F0CE8072
:103E300040F26C10C2F20000BFA10922FCF7B2F9F7
:103E4000002800F0B38040F26C15C2F20005BDA15D
:103E500028460A22FCF7A6F9002800F0A28028686C
:103E600044F25711C4F24B51884200F09A8040F25C
:103E70006C10C2F20000B6A10822FCF793F90028EA
:103E800000F0998040F26C10C2F20000B3A1082249
:103E9000FCF788F9002800F08E8040F26C10C2F226
:103EA0000000B1A10822FCF77DF9002800F088800D
:103EB00040F26C10C2F20000AEA10822FCF772F9C9
:103EC00000287DD040F26C10C2F20000ACA10522A7
:103ED000FCF768F9002873D040F26C10C2F20000C1
:103EE000A9A10C22FCF75EF900287AD040F26C10F0
:103EF000C2F20000A8A10822FCF754F9002875D0EE
:103F000040F26C10C2F20000A6A10B22FCF74AF9A5
:103F1000002800F0948040F26C18C2F20008A4A1BE
:103F200040460A22FCF73EF9002864D040F26C10AB
:103F3000C2F20000A1A10F22FCF734F900285AD0E8
:103F400040F26C15C2F20005A0A128460F22FCF732
:103F500029F9002878D040F26C15C2F200059FA123
:103F600028460922FCF71EF9002800F0808040F264
:103F70006C15C2F200059CA128460522FCF712F937
:103F800020BB681D75E039785E2907D84A1C3A7055
:103F900040F26C12C2F20002505418E00020387057
:103FA00015E040F65F10C2F200000DE040F65C1034
:103FB000C2F2000008E040F65410C2F2000003E034
:103FC00040F65510C2F20000012101703E702046FB
:103FD00040F2255100F00EF902B0BDEC048BBDE8B3
:103FE000F08140F65D10C2F20000EDE740F65E1091
:103FF000C2F20000E8E798F8090008F10F053A2836
:1040000008BF08F10A0501A928460A220195FCF714
:10401000D6F8019A0021AA4207D01278831F002AFD
:1040200018BF0846082B38BF014640F25910C2F2AB
:104030000000017040F65A10C2F20000C4E740F6DA
:104040005910C2F20000BFE705F10F006946009069
:1040500001F096F90098B0EE408A01782C291ED123
:10406000013069460A22FCF7AAF8054618E005F176
:10407000090001F0C9F851EC100BFCF781FA40F28D
:104080005C11C2F20001086040F63C10C2F2000070
:104090000021017040F65B10C2F2000094E7002599
:1040A000009801782C2906D10130694601F068F9A1
:1040B000B0EE409A01E09FED4E9A009801782C29CD
:1040C00005D1013069460A22FCF779F800E00020AA
:1040D000B5EE408AF1EE10FA7FF778AF002D3FF48D
:1040E00075AFB5EE409AF1EE10FA7FF76FAF411E53
:1040F00009293FF66BAF40F25C11C2F2000181ED7D
:10410000008A40F64011C2F200010D6040F64811ED
:10411000C2F2000181ED009A40F64411C2F20001A2
:10412000087040F63C10C2F200000121017040F618
:104130005B10C2F2000048E753544152545F4549B6
:104140005300000057414B455F535441434B00001F
:1041500042515F52455345540000000052455345BB
:10416000545F42510000000042515F534C4545509E
:1041700000000000534C4545505F425100000000D4
:10418000534C45455000000053544152545F53492D
:104190004E474C450000000053544F505F45495373
:1041A000000000004745545F5354415455530000EC
:1041B0005345545F43454C4C533A00005345545FBC
:1041C00043454C4C5F434F554E543A005345545F62
:1041D0004549535F434F4E4649473A005345545F64
:1041E000465245513A000000465245513A000000FF
:1041F00000000000090A012202FA01F1C94301800E
:1042000070470000C1F3421301F01F0C1421022B70
:1042100008BF1021012B4FF0010308BF0C21002A19
:1042200003FA0CF243580CBF23EA02021A4342502D
:10423000704700008289002918BF012122F4005232
:1042400042EA4131818170470088084018BF01204F
:1042500070470000C1F34212022A06D0012A14BF9F
:1042600000F1140200F10C0201E000F110021288CA
:10427000008801F01F03090ADA40C840104000F02E
:104280000100704770B586B00446008A0D46C988A3
:1042900020F4405008432082A0894EF6F3110840D4
:1042A000A9882A896B89084310431843A081A08AF2
:1042B000A98920F4407008436E46A0823046FEF77C
:1042C000C3FC43F60000C4F2010084420BD045F267
:1042D0000040C4F20100844205D045F20000C4F25F
:1042E0000100844202D106F10C0001E006F1080051
:1042F00000682A68192148439100B0FBF1F048F2A8
:104300001F51C5F2EB11A0FB01235A096FF06303A3
:1043100002FB0300322303EB0010A0FB0101C1F3F9
:10432000431040EA0210208106B070BD80886FF310
:104330005F2070476FF35F21818070474FF4165103
:1043400000224FF4402380E80E0082817047000075
:1043500010B540F60044C4F2010420464FF4005169
:104360000022FEF75FF920464FF400410022FEF7DD
:1043700059F920464FF480510022FEF753F941F2DB
:104380007070FDF7D1F820464FF480510122FEF7FE
:1043900049F910BD10B508200121FEF749FC40F68F
:1043A0000044C4F2010420464FF480510122FEF77C
:1043B00039F920464FF480510122FEF705F92046D5
:1043C0004FF400510122FEF7FFF820464FF4004160
:1043D0000122FEF7F9F820464FF480510122FEF742
:1043E00021F920464FF400510022FEF71BF9204628
:1043F0004FF400410022FEF715F910BD80B5FFF71C
:10440000C9FFFFF7A5FF43F60040C4F20100FEF725
:104410000FF943F69820FDF787F843F69820FDF74B
:1044200083F843F69820FDF77FF843F69820FDF7D0
:104430007BF843F69820FDF777F843F69820FDF7D0
:1044400073F843F69820FDF76FF843F69820FDF7D0
:104450006BF843F69820FDF767F880BD2DE9F0472B
:1044600082B040F66019C2F2000990468A460A9C62
:104470000746484640217F221D46FBF781FE20016A
:1044800040B2691E01EAD010204340F080004E4641
:1044900044F0080106F8010B182904BF89F80170DF
:1044A00009F102069AFA9AF026F8020B4DB1A8F12A
:1044B000010000BF10F8011F013D2A0606F8011B8C
:1044C000F8D1A6EB090440F6004848462146C4F25C
:1044D0000108FCF7C1FF41F6C661C2F20001088085
:1044E00049783070717040464FF480510022A61C0C
:1044F000FEF798F80A20FDF717F8B4F1FF3F1ADB32
:1045000048F2A0670020C0F2010708F540550DF100
:10451000060A002419F8001028463A46FFF794F8D6
:10452000B0B9284651463A46FFF77AF880B90134C7
:10453000E0B28642EEDC0A20FCF7F6FF40464FF47C
:1045400080510122FEF76EF80A20FCF7EDFF07E02C
:1045500040464FF480510122FEF764F84FF0FF36D9
:10456000304602B0BDE8F087F0B581B0069D40F25C
:10457000D81740F2D014013DC2F200070026C2F263
:104580000004072D3E60266066604CD8DDF81CC034
:10459000DFE805F004070C1317212D3B22700123DF
:1045A00038E012BA120C2280022333E0130C23707D
:1045B000130A6370A27003232CE012BA2260042352
:1045C00028E02370130E6370130CA370130AE370BA
:1045D000227105231EE01E0A6370130EA370130CD4
:1045E000E370130A267023716271062312E01E0C19
:1045F00026701E0AA370130EE370130C2371130AA6
:1046000066706371A271072304E012BA1BBAC4E991
:104610000032082340F2D012C2F20002CDF800C0EE
:10462000FFF71CFF3860386801B0F0BD4EF623502C
:10463000CEF20000F02101707047000070B5002636
:1046400044F200450446CFF6FE76C4F2000500BFF2
:1046500028468021FFF7F8FD18B90136F8D3204627
:1046600070BDE1B22846FFF765FE204670BD000030
:104670002DE9F04389B08146092001214FF001085E
:10468000FEF7D6FA4FF400300121FEF7C5FA05AE69
:104690003046FDF71BFF102044F20045ADF8140032
:1046A0000220C4F200050790042005F54847089051
:1046B00038463146FDF738FE2020ADF814000620BC
:1046C000002408903846314607948DF81880FDF78D
:1046D0002BFE01AE3046FFF731FE4FF44020039031
:1046E00028463146CDE90194ADF81040FFF7CAFDE8
:1046F000284640F225510122FFF784FD2620C0F212
:10470000001000906846FDF7F5FF28460121FFF7ED
:1047100091FD09B0BDE8F083B0B5012544F2004435
:10472000CFF6FE75C4F2000420464021FFF78CFD51
:10473000002D08BFB0BD002805F10105F4D0B0BDC3
:1047400082B000F0B9FA4FF4E130FFF791FFFDF7C6
:1047500017FD40F2FC1040F63011C2F20000C2F228
:104760000001FCF765FE41F6C460C2F200000025BE
:1047700040F654130746057040F2601040F65E168E
:10478000C2F2000340F6581B40F63B1440F2F0180A
:10479000C2F20000C2F20006C2F2000BC2F2000434
:1047A000C2F200089946057021E000BF40F2601097
:1047B000C2F20000057040F2E510C2F20000057080
:1047C00040F2E410C2F20000057040F65710C2F249
:1047D00000003D70057000208BF8005088F80050F4
:1047E000FDF7E0FC0FF2384001F00CFB4B4630784F
:1047F00060B1357020780028D8D040F2FC1100203C
:10480000C2F200010822FDF73DFBCFE740F65F1240
:10481000C2F200021078A24639465C4658B340F214
:104820006010C2F200001570057040F2E510C2F28F
:104830000000057040F2E410C2F20000057040F67E
:104840005710C2F200000D7005700020257088F826
:104850000050FDF7A7FCFDF743FE00280FF2D8300B
:104860000FF2C83118BF084601F0CCFAFEF740FE3F
:104870004B465446BBE7187898B340F26010C2F23A
:1048800000001D70057040F2E510C2F200000570D6
:1048900040F2E410C2F20000057040F65710C2F278
:1048A00000000D7005700020257088F80050FDF79D
:1048B00079FC9AF80000544618B100201821FCF742
:1048C00057FD2570FDF70CFE00280FF28C300FF21B
:1048D0007C3118BF084601F095FAFEF709FE4B46F9
:1048E00085E740F65512C2F200021078C0B3157089
:1048F0009AF8000048B140F2FC110020C2F2000119
:104900000822FDF7BFFA5C46394640F26010C2F259
:104910000000057040F2E510C2F20000057040F2A0
:10492000E410C2F20000057040F65710C2F2000019
:104930000D7005700020257088F80050FDF732FCDE
:104940009AF80000544618B100200821FCF776FCC4
:1049500040F2E810C2F2000025700570C4A043E7E1
:1049600040F65A12C2F200021078C8B140F2581054
:10497000C2F200000378157040F25912C2F2000230
:1049800010785446062802D310780E2810D346F229
:104990006010C0F6000006210D2200F09DF920E015
:1049A00040F65912C2F200021078F0B115705DE7BE
:1049B000107898F80010012910D098F800100229FA
:1049C0000CD098F80010032908D0397831B940F29A
:1049D0006011C2F20001097800294BD0B2A001F0A9
:1049E00011FAFFF799FE4B4601E740F65B10C2F261
:1049F00000000078C8B140F65B10C2F200000570FC
:104A000040F25C10C2F2000090ED000AB5EE400AE0
:104A1000F1EE10FA09DD40F25C10C2F2000000680D
:104A200040F26412C2F20002106040F65D12C2F25F
:104A30000002107800287BD015709AF800005446C8
:104A400098B198F8000001280AD098F800000228D0
:104A500006D098F80000032802D00878002850D02B
:104A600046F29310C0F60000BEE646F27810C0F69B
:104A70000000B9E601939246FCF744FC40F258115D
:104A8000C2F20001087008788AF800002078002837
:104A900071D040F2FC110020C2F200010822FCF7A4
:104AA000E9FA40B940F69C010020C2F20001FCF78F
:104AB00083FC00285FD00198FCF724FC40F25811D9
:104AC000C2F200010870087840F25911C2F20001E8
:104AD000087040F2FC110020C2F200010822FCF72D
:104AE000C9FA40F69C010020C2F20001FCF764FC08
:104AF00028B140F2E810C2F20000257005705FA0F6
:104B00006DE740F26010C2F20000057040F2E5105F
:104B1000C2F20000057040F2E410C2F2000005701D
:104B20000120FDF73FFB394601204B465C463870BB
:104B300040F65C12C2F200021078D0B315709AF8F9
:104B40000000544690B198F80000012809D098F868
:104B50000000022805D098F80000032801D008784A
:104B600080B146F29310C0F600003DE646F27810A0
:104B7000C0F6000038E640F25810C2F2000001789A
:104B800044A009E70120FDF70DFB40F26010C2F2DE
:104B900000000122027040F2E510C2F20000057030
:104BA00040F2E4105C464B463946C2F20000057004
:104BB0003A700878012808D140F64C10C2F2000083
:104BC00005600C46FEF780FF10E040F65711C2F278
:104BD0000001087830B10A200C46FCF797FCFFF77B
:104BE00001F803E0207828B1FEF72EFE4B46257031
:104BF0005446FCE540F65610C2F2000000785446D8
:104C000000283FF4F4AD40F65610C2F200000570E3
:104C1000207800283FF4EBADFEF7FEFD4B46E6E5BD
:104C200041434B5F53544F500D00000041434B5FD5
:104C300057414B450D0000004552525F57414B45CF
:104C40003A42515F5645524946590D0041434B5F28
:104C500052455345540D00004552525F524553454D
:104C6000543A42515F5645524946590D00000000E2
:104C700041434B5F534C4545500D00004552525F38
:104C800043454C4C533A42515F5645524946590DA3
:104C90000000000041434B5F43454C4C532C2575AD
:104CA0002C25750D0A0000004552525F43454C4CBF
:104CB000533A425553590D0080B540F20C00C2F2F0
:104CC0000000006848F21F51C5F2EB11A0FB010182
:104CD0004809FEF79BFF80BD0FB4054B10B503A933
:104CE000044A029800F0E2FC10BC5DF814FB0000DE
:104CF0003D4600080000002003B4019841000098E0
:104D000050EAC12018BF04204A0D18BF40F001002E
:104D100040F2FF72B2EB515F08BF40F00200012881
:104D200008BF052002B0704700487047040000200B
:104D300070B59B482DED020B2DED068B079D25F0E0
:104D40000044A04218DC9748844202DC0AD106984D
:104D500040B19DED060BBDEC068B02B0BDE8704086
:104D600000F09ABB002DCCBF9FED8F0B9FED900BF9
:104D7000BDEC068B02B070BD8F48A04215DD8F4898
:104D8000A042D8BF4FF0FF3458DD9DED060B51EC2B
:104D9000100BFFF7B1FF042808BF00F091FB9DED59
:104DA000060BBDEC068B02B070BD9DED060B51EC01
:104DB000100B01F01AF8CDE9060181489FED828BB6
:104DC000A0423CDD8248A0421FDD00249FED82AB63
:104DD0009DED060B53EC1A2B51EC100BFBF728FA48
:104DE0009DED060B41EC190B53EC1A2B51EC100BFB
:104DF000FBF7C5FA53EC182BFBF7BBFA53EC192B56
:104E0000FBF72FFBCDE9060149E09DED060B0124E0
:104E100053EC182B51EC100BFBF70AFA9DED060B27
:104E200041EC190B53EC182B51EC100BFBF7A1FACA
:104E300053EC192BFBF715FBCDE906012FE0684871
:104E4000A0421FDD02249FED689B9DED060B53ECF5
:104E5000192B51EC100BFBF792FA53EC182BFBF7C4
:104E6000E7F99DED060B41EC180B53EC192B51ECB7
:104E7000100BFBF77EFA53EC182BFBF7F2FACDE997
:104E800006010CE09DED060B032453EC102B9FED67
:104E9000580B51EC100BFBF7E4FACDE906019DED40
:104EA000060B53EC102B51EC100BFBF768FA41EC9E
:104EB000180B53EC182BFBF762FA41EC190B4E4818
:104EC0000621B0EE490AF0EE690A784400F068FA6B
:104ED00053EC182B51EC100BFBF751FA41EC180B6B
:104EE0004648B0EE490AF0EE690A0521784400F020
:104EF00057FA53EC192B51EC100BFBF740FA41EC2D
:104F0000100B51EC180B53EC102B002C0EDAFBF7A6
:104F10008FF99DED061B53EC112BFBF730FA9DED3D
:104F2000061B53EC112BFBF727FA35E0FBF780F952
:104F30009DED061B53EC112BFBF721FA41EC100BF6
:104F40002F48784400EBC40090ED001B51EC100B8F
:104F500053EC112BFBF70DFA9DED061B53EC112BB7
:104F6000FBF707FA41EC100B2648784400EBC4002D
:104F700090ED001B51EC100B53EC112BFBF7FCF9DF
:104F800041EC100B002DA2BFBDEC068B02B070BD32
:104F900051EC100B81F0004141EC100B01E70000D7
:104FA000000010440000F07F182D4454FB21F93F0D
:104FB000182D4454FB21F9BF0000DC3F0000203EC7
:104FC0000000F33F00000000000000000000F03F80
:104FD0000000E63F0000000000000000000000406C
:104FE0000080034000000000000000000000F83FC7
:104FF000000000000000F0BFC20F0000780F0000AA
:10500000020F0000BA0E000070B56F4E2DED040BBC
:105010002DED048B82B0DDF824C0DDE907235C426E
:105020002CF000411C4341EAD474069D22F000405C
:10503000B44205D86C422C4340EAD474B4420BD934
:105040009DED081B9DED060B02B0BDEC048B04B07A
:10505000BDE8704000F02ABAACF14054A4F17F647E
:105060001C430BD0022404EAAC7444EAD274054316
:105070009FED578B9FED582B07D015E09DED060B4C
:1050800051EC100B00F0A9FE42E0002C11BF012CE6
:105090009DED060B02B0BDEC048B04BF04B070BDE7
:1050A000022C38D0032C3BD00B439FED4D1B9FEDC2
:1050B0004E0B0AD0B14218D1B04209D121F0804143
:1050C00020F08040099107900FE0002A15DA10E0E7
:1050D000474B7B44002C08BF93ED000B0DD0012CF7
:1050E00010D0022C17D0032C1AD0B0421DD1002AA8
:1050F00003DAB0EE410AF0EE610A02B0BDEC048BB7
:1051000004B070BD93ED000B51EC100B81F0004129
:1051100041EC100BF1E7B0EE480AF0EE680AECE75C
:10512000B0EE420AF0EE620AE7E7401A00159FED82
:10513000329B3C28C8BF8DED000B17DCBCF1000F83
:10514000BCBF10F13C0F8DED009B0FDB9DED080BFC
:1051500053EC102B9DED060B51EC100BFBF781F976
:1051600000F043FE00F039FECDE90001B4B1012C9E
:1051700010D0022C9FED220B53EC102B9DED000B59
:1051800051EC100B19D0FBF7F4F853EC182BFBF78C
:10519000F0F8BDE7019880F0004001909DED000B14
:1051A00053EC192B51EC100BFBF7ECFB04BF022066
:1051B00000F0ACF99DED000B9FE7FBF7DAF853EC3C
:1051C000182BFBF7D9F8A3E70000F07F00000000E0
:1051D000182D4454FB210940182D4454FB2109C0CB
:1051E000182D4454FB21F9BF182D4454FB21F93FDD
:1051F000EA0D0000000000000000000000000000B8
:10520000075C143326A6A13C30B583B0044600F0F9
:1052100067F99FED090B05468DED000B0123002278
:1052200021466846FBF7ABFA284600F06FF99DED82
:10523000000B03B030BD00000000000000000000C3
:1052400010EE100AC0F3C7517F391729A8BF704765
:10525000DFED140A002970EE200A0CDAF5EEC00A20
:10526000F1EE10FA1ADD0028C8BF4FF07E50B8BF2B
:105270004FF0004012E00C4A22FA01F2104208BF3F
:105280007047F5EEC00AF1EE10FA07DD002804DDE4
:105290004FF4000323FA01F10844904300EE100A92
:1052A00070470000CAF24971FFFF7F0010B52DED75
:1052B000028BB0EE408A18EE100AFBF7D0FA01EE2E
:1052C000100A18EE100AB7EE000A78EE410A10F044
:1052D000004F4FF07F4010EE901A12D0B1F13F4FC7
:1052E00024BF10EE901AB0EB410F12D210EE901ABC
:1052F000B1F17C5F1CDD10EE901AB0EB410F17D3BB
:1053000014E0B1F13F4F07D910EE901AB0EB410F06
:1053100002D331EE401A0BE010EE901AB1F17C5F2F
:1053200006DB10EE901AB0EB410F01D331EE001AFC
:1053300018EE100ABDEC028B11EE101A61F31E007C
:1053400000EE100A10BD10B52DED028BB1EEC08A33
:1053500018EE100A20F00040C0F1FF40C00F0AD044
:1053600010EE100A20F00040C0F1FF40C00F04BF53
:10537000012000F0CBF8B0EE480ABDEC028B10BD66
:1053800008B59FED060A0A4601468DED000A6846FB
:10539000FBF72AFA9DED000A08BD0000000000009E
:1053A00070B504462DED028B4D1E00EBC500B0EE2E
:1053B000408AF0EE608A90ED000B35F0060017D0C1
:1053C00053EC182B51EC100BFAF7D9FF41EC100BF2
:1053D0006D1E04EBC50090ED001B51EC100B53EC5F
:1053E000112BFAF725FF41EC100B35F00600E7D141
:1053F000022D36D0042D1CD0062D1CBFBDEC028B17
:1054000070BD53EC182B51EC100BFAF7B8FF94ED6C
:105410000A1B53EC112BFAF70BFF53EC182BFAF77E
:10542000AEFF94ED081B53EC112BFAF701FF41EC92
:10543000100B53EC182B51EC100BFAF7A0FF94ED66
:10544000061B53EC112BFAF7F3FE53EC182BFAF76B
:1054500096FF94ED040B53EC102BFAF7E9FE41ECA8
:10546000100B53EC182B51EC100BFAF788FF94ED4E
:10547000021B53EC112BFAF7DBFE53EC182BFAF757
:105480007EFF94ED001B53EC112BFAF7D1FEBDEC1F
:10549000028B41EC100B70BD10B553EC102B51EC8E
:1054A000100BFAF7C5FE41EC100B10BD10B553EC14
:1054B000112B51EC100BFAF7BBFE41EC100B10BD99
:1054C0009FED050B10B553EC102B51EC100BFAF7B8
:1054D00056FF41EC100B10BD000000000000001052
:1054E00001480068704700000400002002E008C87E
:1054F000121F08C1002AFAD170477047002001E04E
:1055000001C1121F002AFBD1704700000149086049
:1055100070470000040000202DE9FF5F82B00021E9
:10552000DDE90430020DDDF840B0034318D044F645
:105530001050A2F2FF3242431514119801281FD0D7
:10554000A5EB0B00401C5FEA000A4FF000064E4F2F
:10555000DFF83891B046504615D5CAF1000413E083
:10556000119801244AA3012801D16FEA0B01029886
:10557000119AC0E90031C0E9024206B0BDE8F09FCF
:10558000CBF10000DFE704460021404A491842EB16
:105590000450CDE9001012E0E00707D032463B4648
:1055A00040464946FAF7EBFE8046894632463B467E
:1055B00010461946FAF7E3FE06460F466410002C23
:1055C000EAD1DDE90401DDE90023BAF1000F06DAD2
:1055D000FAF7D5FE42464B46FAF7D1FE05E0FAF758
:1055E00040FF42464B46FAF73CFF04460E46002277
:1055F000284BFBF7DFF903D84FF0FF30014607E0F7
:105600000022254B20463146FAF712FEFBF7A2F99D
:10561000102409E0002C0ADB0A220023FAF7E2FF3B
:10562000039B30321A55641E50EA0102F2D1641C09
:10563000039AC4F111031444119A012A03D00122E0
:1056400008430DD10AE0084304D000204FF0110BAD
:10565000119072E7A3EB0B056D1E0DE05B4504DDB9
:105660004FF0000205F1010504E003DA4FF00002FB
:10567000A5F10105002AECD002981199C0E9023188
:10568000C0E9004579E70000000014400000F03F49
:10569000300000000000F0430000E03F30380A28EE
:1056A00001D2012070470020704700002DE9FF4F14
:1056B00095B09B468946064600250FE2252877D1FE
:1056C00000242746F84A0121059400E0044316F817
:1056D000013F203B01FA03F01042F7D130782A282D
:1056E00011D06FF02F033078A0F13002092A16D8BC
:1056F000059A44F0020402EB820203EB42021044DA
:10570000761C0590EFE759F8042B0592002A03DA7E
:10571000504244F40054059044F00204761C307862
:105720002E2816D116F8010F44F004042A280DD0B3
:105730006FF02F023078A0F13003092B09D807EB66
:10574000870302EB4303C718761CF3E759F8047B81
:10575000761C30786C280FD006DC4C2817D06828CF
:105760000DD06A2814D104E0742810D07A280FD103
:105770000DE044F400140AE044F4801401E044F421
:1057800040147278824202D104F58014761C761C93
:10579000307866280BD013DC582877D009DC002835
:1057A00075D04528F6D04628F4D047281AD19DE177
:1057B00018E0632835D0642879D0652812D195E1A6
:1057C000702873D008DC6728F1D069286FD06E2864
:1057D0000DD06F2806D1B5E073282CD0752875D070
:1057E000782874D05A46179990476D1C75E1C4F318
:1057F0000250022809D003280DD0D9F8001004283F
:105800000DD00D6009F1040967E1D9F80010EA171D
:10581000C1E90052F6E7D9F800100D80F2E70D70EB
:10582000F0E719F8041B8DF8001000208DF8010036
:10583000EA46012003E059F804AB4FF0FF3061075E
:105840004FF0000102D40DE008F101018846B94291
:105850000FDA8045F8DB1AF808100029F4D108E0C7
:1058600008F1010188468142FADB1AF80810002984
:10587000F6D105985B46A0EB080721463846179AF3
:1058800000F094FA284400EB080507E04DE029E118
:105890000DE01AF8010B5A4617999047B8F1010824
:1058A000F7D25B4621463846179A13E142E00A22B6
:1058B0000092C4F302524FF0000A022A08D059F8AD
:1058C00004CB032A4FEAEC710AD00DE029E02AE06C
:1058D00009F1070121F00702F2E802C1914609E04F
:1058E0000FFA8CFC4FEAEC71042A03D14FFA8CFCBE
:1058F0004FEAEC71002907DA0A460021DCF1000CBE
:1059000061EB02012D2202E0220504D52B228DF845
:105910000420012203E0E20701D02022F7E79046AD
:1059200059E00A2102E010220DE010214FF0000A98
:1059300000910BE010224FF0000A44F00404082705
:10594000009203E008224FF0000A0092C4F30252D2
:10595000022A05D059F804CB0021032A08D009E017
:1059600009F1070121F00702F2E802C1914605E0C2
:105970001FFA8CFC042A01D10CF0FF0C4FF0000838
:10598000220728D5702806D0009B83F0100353EA25
:105990000A0305D00EE040228DF80420012208E021
:1059A0005CEA010206D030228DF804208DF8050053
:1059B00002229046009B83F0080353EA0A030AD1AF
:1059C0005CEA010201D1620705D530228DF804207E
:1059D0004FF001087F1E582804D034A003900EA871
:1059E00002900DE036A0F9E753466046009AFAF7B8
:1059F000F9FD84460398825C0298401E0290027072
:105A00005CEA0100F0D1029806A9081A00F1200A08
:105A1000600702D524F4803400E00127574502DDF9
:105A2000A7EB0A0000E0002000EB0A0100900598B7
:105A30004144401A0590E00306D45B462146179A7C
:105A4000059800F0B3F90544002706E001A85A467E
:105A5000C05D179990476D1C7F1C4745F6DBE0033E
:105A60000CD55B462146179A059800F09FF905442E
:105A700004E030205A46179990476D1C0099481E43
:105A800000900029F5DC08E0029802995A46007857
:105A9000491C0291179990476D1CBAF10001AAF1B7
:105AA000010AF1DC65E100000928010030313233E0
:105AB000343536373839616263646566000000004A
:105AC0003031323334353637383941424344454634
:105AD0000000000000F058F90544761C30780028DA
